{
  "contractName": "Device",
  "abi": [
    {
      "constant": true,
      "inputs": [],
      "name": "OS",
      "outputs": [
        {
          "name": "",
          "type": "address"
        }
      ],
      "payable": false,
      "stateMutability": "view",
      "type": "function"
    },
    {
      "constant": true,
      "inputs": [],
      "name": "startDate",
      "outputs": [
        {
          "name": "",
          "type": "uint256"
        }
      ],
      "payable": false,
      "stateMutability": "view",
      "type": "function"
    },
    {
      "constant": true,
      "inputs": [],
      "name": "deviceStatus",
      "outputs": [
        {
          "name": "",
          "type": "uint8"
        }
      ],
      "payable": false,
      "stateMutability": "view",
      "type": "function"
    },
    {
      "constant": true,
      "inputs": [],
      "name": "deviceSku",
      "outputs": [
        {
          "name": "",
          "type": "bytes32"
        }
      ],
      "payable": false,
      "stateMutability": "view",
      "type": "function"
    },
    {
      "constant": true,
      "inputs": [],
      "name": "deviceID",
      "outputs": [
        {
          "name": "",
          "type": "bytes32"
        }
      ],
      "payable": false,
      "stateMutability": "view",
      "type": "function"
    },
    {
      "constant": true,
      "inputs": [],
      "name": "deviceType",
      "outputs": [
        {
          "name": "",
          "type": "bytes32"
        }
      ],
      "payable": false,
      "stateMutability": "view",
      "type": "function"
    },
    {
      "constant": true,
      "inputs": [],
      "name": "modelName",
      "outputs": [
        {
          "name": "",
          "type": "bytes32"
        }
      ],
      "payable": false,
      "stateMutability": "view",
      "type": "function"
    },
    {
      "constant": true,
      "inputs": [],
      "name": "Owner",
      "outputs": [
        {
          "name": "",
          "type": "address"
        }
      ],
      "payable": false,
      "stateMutability": "view",
      "type": "function"
    },
    {
      "constant": true,
      "inputs": [],
      "name": "chCnt",
      "outputs": [
        {
          "name": "",
          "type": "uint256"
        }
      ],
      "payable": false,
      "stateMutability": "view",
      "type": "function"
    },
    {
      "constant": true,
      "inputs": [],
      "name": "endDate",
      "outputs": [
        {
          "name": "",
          "type": "uint256"
        }
      ],
      "payable": false,
      "stateMutability": "view",
      "type": "function"
    },
    {
      "constant": true,
      "inputs": [],
      "name": "oemSerial",
      "outputs": [
        {
          "name": "",
          "type": "bytes32"
        }
      ],
      "payable": false,
      "stateMutability": "view",
      "type": "function"
    },
    {
      "constant": true,
      "inputs": [],
      "name": "OEM",
      "outputs": [
        {
          "name": "",
          "type": "bytes32"
        }
      ],
      "payable": false,
      "stateMutability": "view",
      "type": "function"
    },
    {
      "inputs": [
        {
          "name": "_Owner",
          "type": "address"
        },
        {
          "name": "_deviceID",
          "type": "bytes32"
        },
        {
          "name": "_modelName",
          "type": "bytes32"
        },
        {
          "name": "_deviceType",
          "type": "bytes32"
        },
        {
          "name": "_deviceSku",
          "type": "bytes32"
        },
        {
          "name": "_OEM",
          "type": "bytes32"
        }
      ],
      "payable": false,
      "stateMutability": "nonpayable",
      "type": "constructor"
    },
    {
      "anonymous": false,
      "inputs": [
        {
          "indexed": false,
          "name": "_type",
          "type": "uint8"
        },
        {
          "indexed": false,
          "name": "_memo",
          "type": "string"
        },
        {
          "indexed": false,
          "name": "_deviceID",
          "type": "bytes32"
        },
        {
          "indexed": false,
          "name": "_device",
          "type": "address"
        }
      ],
      "name": "Logger",
      "type": "event"
    },
    {
      "anonymous": false,
      "inputs": [
        {
          "indexed": false,
          "name": "_newOwner",
          "type": "address"
        }
      ],
      "name": "newOwner",
      "type": "event"
    },
    {
      "anonymous": false,
      "inputs": [
        {
          "indexed": false,
          "name": "_subscription",
          "type": "address"
        }
      ],
      "name": "subscription",
      "type": "event"
    },
    {
      "constant": false,
      "inputs": [
        {
          "name": "_chStatus",
          "type": "uint8"
        },
        {
          "name": "_chMemo",
          "type": "string"
        },
        {
          "name": "_itemInfo",
          "type": "bytes32"
        }
      ],
      "name": "addChLog",
      "outputs": [
        {
          "name": "success",
          "type": "bool"
        }
      ],
      "payable": false,
      "stateMutability": "nonpayable",
      "type": "function"
    },
    {
      "constant": true,
      "inputs": [
        {
          "name": "_logs",
          "type": "uint256"
        }
      ],
      "name": "getChLogs",
      "outputs": [
        {
          "name": "",
          "type": "uint256"
        },
        {
          "name": "",
          "type": "uint8"
        },
        {
          "name": "",
          "type": "address"
        },
        {
          "name": "",
          "type": "address"
        },
        {
          "name": "",
          "type": "string"
        },
        {
          "name": "",
          "type": "bytes32"
        }
      ],
      "payable": false,
      "stateMutability": "view",
      "type": "function"
    },
    {
      "constant": false,
      "inputs": [
        {
          "name": "_newOwner",
          "type": "address"
        }
      ],
      "name": "transferOwner",
      "outputs": [
        {
          "name": "success",
          "type": "bool"
        }
      ],
      "payable": false,
      "stateMutability": "nonpayable",
      "type": "function"
    },
    {
      "constant": false,
      "inputs": [
        {
          "name": "_org",
          "type": "bytes32"
        }
      ],
      "name": "setOrg",
      "outputs": [
        {
          "name": "success",
          "type": "bool"
        }
      ],
      "payable": false,
      "stateMutability": "nonpayable",
      "type": "function"
    },
    {
      "constant": false,
      "inputs": [
        {
          "name": "_OS",
          "type": "address"
        }
      ],
      "name": "addOS",
      "outputs": [
        {
          "name": "success",
          "type": "bool"
        }
      ],
      "payable": false,
      "stateMutability": "nonpayable",
      "type": "function"
    },
    {
      "constant": false,
      "inputs": [
        {
          "name": "_entitlement",
          "type": "address"
        }
      ],
      "name": "subscribe",
      "outputs": [
        {
          "name": "success",
          "type": "bool"
        }
      ],
      "payable": false,
      "stateMutability": "nonpayable",
      "type": "function"
    },
    {
      "constant": false,
      "inputs": [
        {
          "name": "_status",
          "type": "uint8"
        }
      ],
      "name": "statusUpdate",
      "outputs": [
        {
          "name": "success",
          "type": "bool"
        }
      ],
      "payable": false,
      "stateMutability": "nonpayable",
      "type": "function"
    },
    {
      "constant": true,
      "inputs": [
        {
          "name": "_entitlement",
          "type": "uint256"
        }
      ],
      "name": "getBalance",
      "outputs": [
        {
          "name": "deviceBalance",
          "type": "uint256"
        },
        {
          "name": "userBalance",
          "type": "uint256"
        }
      ],
      "payable": false,
      "stateMutability": "view",
      "type": "function"
    },
    {
      "constant": false,
      "inputs": [
        {
          "name": "_entitlement",
          "type": "uint256"
        },
        {
          "name": "_to",
          "type": "address"
        },
        {
          "name": "_value",
          "type": "uint256"
        }
      ],
      "name": "transferEnt",
      "outputs": [
        {
          "name": "success",
          "type": "bool"
        }
      ],
      "payable": false,
      "stateMutability": "nonpayable",
      "type": "function"
    },
    {
      "constant": true,
      "inputs": [
        {
          "name": "_index",
          "type": "uint256"
        }
      ],
      "name": "getEntitlement",
      "outputs": [
        {
          "name": "entitlement",
          "type": "address"
        }
      ],
      "payable": false,
      "stateMutability": "view",
      "type": "function"
    },
    {
      "constant": true,
      "inputs": [],
      "name": "getEntitlementCount",
      "outputs": [
        {
          "name": "total",
          "type": "uint256"
        }
      ],
      "payable": false,
      "stateMutability": "view",
      "type": "function"
    },
    {
      "constant": false,
      "inputs": [
        {
          "name": "_operator",
          "type": "address"
        },
        {
          "name": "_from",
          "type": "address"
        },
        {
          "name": "_tokenId",
          "type": "uint256"
        },
        {
          "name": "_data",
          "type": "bytes"
        }
      ],
      "name": "onERC721Received",
      "outputs": [
        {
          "name": "",
          "type": "bytes4"
        }
      ],
      "payable": false,
      "stateMutability": "nonpayable",
      "type": "function"
    }
  ],
  "bytecode": "0x608060405234801561001057600080fd5b5060405160c080611a268339810180604052810190808051906020019092919080519060200190929190805190602001909291908051906020019092919080519060200190929190805190602001909291905050506000602060ff1611801561007d57506000602060ff16115b801561008d57506000602060ff16115b151561009857600080fd5b84600581600019169055508360078160001916905550826008816000191690555080600a81600019169055506000600b60006101000a81548173ffffffffffffffffffffffffffffffffffffffff021916908373ffffffffffffffffffffffffffffffffffffffff160217905550856000806101000a81548173ffffffffffffffffffffffffffffffffffffffff021916908373ffffffffffffffffffffffffffffffffffffffff16021790555081600981600019169055506000600260006101000a81548160ff0219169083600581111561017057fe5b021790555050505050505061189c8061018a6000396000f30060806040526004361061013e576000357c0100000000000000000000000000000000000000000000000000000000900463ffffffff16806301e0d330146101435780630336c8391461019a5780630b97bc86146102d1578063150b7a02146102fc5780631e01043914610401578063244ce20a146104495780632839e9c0146104a457806330960980146104dd57806341a7726a146105795780634f2ad58f146105d45780634fb2e45d146106075780636013cdc2146106625780636b37de3f1461069557806381d0faaa146106de578063a77bec8214610711578063a81675c71461077e578063b4a99a4e146107b1578063ba8cc75414610808578063c24a0f8b14610833578063c798c4671461085e578063d57f5cf914610891578063d9d29726146108c4578063e650c71a1461090c578063f9cce5fc1461097b575b600080fd5b34801561014f57600080fd5b506101586109a6565b604051808273ffffffffffffffffffffffffffffffffffffffff1673ffffffffffffffffffffffffffffffffffffffff16815260200191505060405180910390f35b3480156101a657600080fd5b506101c5600480360381019080803590602001909291905050506109cc565b604051808781526020018660058111156101db57fe5b60ff1681526020018573ffffffffffffffffffffffffffffffffffffffff1673ffffffffffffffffffffffffffffffffffffffff1681526020018473ffffffffffffffffffffffffffffffffffffffff1673ffffffffffffffffffffffffffffffffffffffff168152602001806020018360001916600019168152602001828103825284818151815260200191508051906020019080838360005b83811015610291578082015181840152602081019050610276565b50505050905090810190601f1680156102be5780820380516001836020036101000a031916815260200191505b5097505050505050505060405180910390f35b3480156102dd57600080fd5b506102e6610b5d565b6040518082815260200191505060405180910390f35b34801561030857600080fd5b506103ad600480360381019080803573ffffffffffffffffffffffffffffffffffffffff169060200190929190803573ffffffffffffffffffffffffffffffffffffffff16906020019092919080359060200190929190803590602001908201803590602001908080601f0160208091040260200160405190810160405280939291908181526020018383808284378201915050505050509192919290505050610b63565b60405180827bffffffffffffffffffffffffffffffffffffffffffffffffffffffff19167bffffffffffffffffffffffffffffffffffffffffffffffffffffffff1916815260200191505060405180910390f35b34801561040d57600080fd5b5061042c60048036038101908080359060200190929190505050610bcb565b604051808381526020018281526020019250505060405180910390f35b34801561045557600080fd5b5061048a600480360381019080803573ffffffffffffffffffffffffffffffffffffffff169060200190929190505050610e6e565b604051808215151515815260200191505060405180910390f35b3480156104b057600080fd5b506104b9610f00565b604051808260058111156104c957fe5b60ff16815260200191505060405180910390f35b3480156104e957600080fd5b5061055f600480360381019080803560ff169060200190929190803590602001908201803590602001908080601f01602080910402602001604051908101604052809392919081815260200183838082843782019150505050505091929192908035600019169060200190929190505050610f13565b604051808215151515815260200191505060405180910390f35b34801561058557600080fd5b506105ba600480360381019080803573ffffffffffffffffffffffffffffffffffffffff169060200190929190505050611125565b604051808215151515815260200191505060405180910390f35b3480156105e057600080fd5b506105e9611258565b60405180826000191660001916815260200191505060405180910390f35b34801561061357600080fd5b50610648600480360381019080803573ffffffffffffffffffffffffffffffffffffffff16906020019092919050505061125e565b604051808215151515815260200191505060405180910390f35b34801561066e57600080fd5b5061067761130c565b60405180826000191660001916815260200191505060405180910390f35b3480156106a157600080fd5b506106c46004803603810190808035600019169060200190929190505050611312565b604051808215151515815260200191505060405180910390f35b3480156106ea57600080fd5b506106f36113eb565b60405180826000191660001916815260200191505060405180910390f35b34801561071d57600080fd5b5061073c600480360381019080803590602001909291905050506113f1565b604051808273ffffffffffffffffffffffffffffffffffffffff1673ffffffffffffffffffffffffffffffffffffffff16815260200191505060405180910390f35b34801561078a57600080fd5b50610793611434565b60405180826000191660001916815260200191505060405180910390f35b3480156107bd57600080fd5b506107c661143a565b604051808273ffffffffffffffffffffffffffffffffffffffff1673ffffffffffffffffffffffffffffffffffffffff16815260200191505060405180910390f35b34801561081457600080fd5b5061081d61145f565b6040518082815260200191505060405180910390f35b34801561083f57600080fd5b50610848611465565b6040518082815260200191505060405180910390f35b34801561086a57600080fd5b5061087361146b565b60405180826000191660001916815260200191505060405180910390f35b34801561089d57600080fd5b506108a6611471565b60405180826000191660001916815260200191505060405180910390f35b3480156108d057600080fd5b506108f2600480360381019080803560ff169060200190929190505050611477565b604051808215151515815260200191505060405180910390f35b34801561091857600080fd5b5061096160048036038101908080359060200190929190803573ffffffffffffffffffffffffffffffffffffffff16906020019092919080359060200190929190505050611567565b604051808215151515815260200191505060405180910390f35b34801561098757600080fd5b506109906117be565b6040518082815260200191505060405180910390f35b600b60009054906101000a900473ffffffffffffffffffffffffffffffffffffffff1681565b60008060008060606000600f600088815260200190815260200160002060000154600f600089815260200190815260200160002060010160009054906101000a900460ff16600f60008a815260200190815260200160002060010160019054906101000a900473ffffffffffffffffffffffffffffffffffffffff16600f60008b815260200190815260200160002060020160009054906101000a900473ffffffffffffffffffffffffffffffffffffffff16600f60008c8152602001908152602001600020600301600f60008d815260200190815260200160002060040154818054600181600116156101000203166002900480601f016020809104026020016040519081016040528092919081815260200182805460018160011615610100020316600290048015610b415780601f10610b1657610100808354040283529160200191610b41565b820191906000526020600020905b815481529060010190602001808311610b2457829003601f168201915b5050505050915095509550955095509550955091939550919395565b60035481565b600060405180807f6f6e455243373231526563656976656428616464726573732c6164647265737381526020017f2c75696e743235362c6279746573290000000000000000000000000000000000815250602f01905060405180910390209050949350505050565b6000806000600d84815481101515610bdf57fe5b9060005260206000200160009054906101000a900473ffffffffffffffffffffffffffffffffffffffff16905080600c60006101000a81548173ffffffffffffffffffffffffffffffffffffffff021916908373ffffffffffffffffffffffffffffffffffffffff160217905550600c60009054906101000a900473ffffffffffffffffffffffffffffffffffffffff1673ffffffffffffffffffffffffffffffffffffffff166370a08231306040518263ffffffff167c0100000000000000000000000000000000000000000000000000000000028152600401808273ffffffffffffffffffffffffffffffffffffffff1673ffffffffffffffffffffffffffffffffffffffff168152602001915050602060405180830381600087803b158015610d0a57600080fd5b505af1158015610d1e573d6000803e3d6000fd5b505050506040513d6020811015610d3457600080fd5b81019080805190602001909291905050509250600c60009054906101000a900473ffffffffffffffffffffffffffffffffffffffff1673ffffffffffffffffffffffffffffffffffffffff166370a082316000809054906101000a900473ffffffffffffffffffffffffffffffffffffffff166040518263ffffffff167c0100000000000000000000000000000000000000000000000000000000028152600401808273ffffffffffffffffffffffffffffffffffffffff1673ffffffffffffffffffffffffffffffffffffffff168152602001915050602060405180830381600087803b158015610e2557600080fd5b505af1158015610e39573d6000803e3d6000fd5b505050506040513d6020811015610e4f57600080fd5b8101908080519060200190929190505050915082829250925050915091565b600080600b60009054906101000a900473ffffffffffffffffffffffffffffffffffffffff1673ffffffffffffffffffffffffffffffffffffffff16141515610eb657600080fd5b81600b60006101000a81548173ffffffffffffffffffffffffffffffffffffffff021916908373ffffffffffffffffffffffffffffffffffffffff16021790555060019050919050565b600260009054906101000a900460ff1681565b600080600f600060105481526020019081526020016000209050428160000181905550848160010160006101000a81548160ff02191690836005811115610f5657fe5b02179055506000809054906101000a900473ffffffffffffffffffffffffffffffffffffffff168160010160016101000a81548173ffffffffffffffffffffffffffffffffffffffff021916908373ffffffffffffffffffffffffffffffffffffffff160217905550600b60009054906101000a900473ffffffffffffffffffffffffffffffffffffffff168160020160006101000a81548173ffffffffffffffffffffffffffffffffffffffff021916908373ffffffffffffffffffffffffffffffffffffffff1602179055508381600301908051906020019061103c9291906117cb565b50828160040181600019169055507f426175ad8874b4bc4c13145c1188da49739d4a866decb2f6e1971a9807281962600084336040518084600181111561107f57fe5b60ff1681526020018060200184600019166000191681526020018373ffffffffffffffffffffffffffffffffffffffff1673ffffffffffffffffffffffffffffffffffffffff168152602001828103825260128152602001807f4368616e6765206c6f672075706461746564000000000000000000000000000081525060200194505050505060405180910390a160016010540160108190555060019150509392505050565b6000600d8290806001815401808255809150509060018203906000526020600020016000909192909190916101000a81548173ffffffffffffffffffffffffffffffffffffffff021916908373ffffffffffffffffffffffffffffffffffffffff160217905550507f426175ad8874b4bc4c13145c1188da49739d4a866decb2f6e1971a980728196260008084604051808460018111156111c257fe5b60ff16815260200180602001846001026000191681526020018373ffffffffffffffffffffffffffffffffffffffff1673ffffffffffffffffffffffffffffffffffffffff1681526020018281038252600e8152602001807f536f66747761726520416464656400000000000000000000000000000000000081525060200194505050505060405180910390a160019050919050565b60095481565b6000816000806101000a81548173ffffffffffffffffffffffffffffffffffffffff021916908373ffffffffffffffffffffffffffffffffffffffff1602179055507f8595245435170930a21ed26c79efd78952513e5f85ae3d411a586ab25df17bb382604051808273ffffffffffffffffffffffffffffffffffffffff1673ffffffffffffffffffffffffffffffffffffffff16815260200191505060405180910390a160019050919050565b60055481565b600081600181600019169055507f426175ad8874b4bc4c13145c1188da49739d4a866decb2f6e1971a9807281962600083336040518084600181111561135457fe5b60ff1681526020018060200184600019166000191681526020018373ffffffffffffffffffffffffffffffffffffffff1673ffffffffffffffffffffffffffffffffffffffff1681526020018281038252600b8152602001807f4f7267204368616e67656400000000000000000000000000000000000000000081525060200194505050505060405180910390a160019050919050565b60085481565b6000600d8281548110151561140257fe5b9060005260206000200160009054906101000a900473ffffffffffffffffffffffffffffffffffffffff169050919050565b60075481565b6000809054906101000a900473ffffffffffffffffffffffffffffffffffffffff1681565b60105481565b60045481565b60065481565b600a5481565b600081600260006101000a81548160ff0219169083600581111561149757fe5b02179055507f426175ad8874b4bc4c13145c1188da49739d4a866decb2f6e1971a980728196260008033604051808460018111156114d157fe5b60ff16815260200180602001846001026000191681526020018373ffffffffffffffffffffffffffffffffffffffff1673ffffffffffffffffffffffffffffffffffffffff1681526020018281038252600f8152602001807f537461747573204d6f646966696564000000000000000000000000000000000081525060200194505050505060405180910390a160019050919050565b600080600d8581548110151561157957fe5b9060005260206000200160009054906101000a900473ffffffffffffffffffffffffffffffffffffffff16905080600c60006101000a81548173ffffffffffffffffffffffffffffffffffffffff021916908373ffffffffffffffffffffffffffffffffffffffff160217905550600c60009054906101000a900473ffffffffffffffffffffffffffffffffffffffff1673ffffffffffffffffffffffffffffffffffffffff1663a9059cbb85856040518363ffffffff167c0100000000000000000000000000000000000000000000000000000000028152600401808373ffffffffffffffffffffffffffffffffffffffff1673ffffffffffffffffffffffffffffffffffffffff16815260200182815260200192505050602060405180830381600087803b1580156116ac57600080fd5b505af11580156116c0573d6000803e3d6000fd5b505050506040513d60208110156116d657600080fd5b8101908080519060200190929190505050507f426175ad8874b4bc4c13145c1188da49739d4a866decb2f6e1971a9807281962600080611715886113f1565b6040518084600181111561172557fe5b60ff16815260200180602001846001026000191681526020018373ffffffffffffffffffffffffffffffffffffffff1673ffffffffffffffffffffffffffffffffffffffff168152602001828103825260148152602001807f536f667477617265205472616e7366657272656400000000000000000000000081525060200194505050505060405180910390a160019150509392505050565b6000600d80549050905090565b828054600181600116156101000203166002900490600052602060002090601f016020900481019282601f1061180c57805160ff191683800117855561183a565b8280016001018555821561183a579182015b8281111561183957825182559160200191906001019061181e565b5b509050611847919061184b565b5090565b61186d91905b80821115611869576000816000905550600101611851565b5090565b905600a165627a7a723058200bc143e2f3514a15700b1e01381c92a741ef6cafa221706c04db99b85db232c70029",
  "source": "pragma solidity ^0.4.24;\r\n\r\n/**\r\n * @title Device\r\n * @dev Device proto contract, deployed by a device factory\r\n */\r\n\r\n import \"./Tokens/DRMToken.sol\";\r\n\r\n\r\ncontract Device{\r\n  address   public Owner;\r\n  bytes32 org; //owning org\r\n\r\n\r\n  enum status{\r\n      Manufactured,\r\n      Fulfilled,\r\n      Activated,\r\n      Returned,\r\n      Refurbished,\r\n      EOL\r\n  }\r\n\r\n  enum devType {\r\n    laptop,\r\n    desktop,\r\n    mobile,\r\n    tablet,\r\n    gaming,\r\n    IoT\r\n  }\r\n\r\n  status    public deviceStatus;\r\n  //bool      public isActive;\r\n  uint256   public startDate;\r\n  uint256   public endDate;\r\n\r\n  bytes32   public deviceID; //Generic HW Hash [mandatory] (4KHash for the current OEM partners of Microsoft)\r\n  bytes32   public oemSerial; //OEM Serial Number [mandatory] - OEM's internal device identifier\r\n  bytes32   public modelName; //Model Name [mandatory]\r\n  bytes32   public deviceType; // Device Type [mandatory] - Refer to Domain Data Deliverable for Device type\r\n  bytes32   public deviceSku; // Device SKU [optional]\r\n  bytes32   public OEM; // oem that manufactured the device\r\n  address   public OS; // device operation system contract\r\n\r\n  enum logType {statusUpdate,err}\r\n  event Logger(logType _type, string _memo, bytes32 _deviceID,  address _device);\r\n\r\n  //Enterprise enterprise;\r\n  DRMToken DRMentitlement;\r\n\r\n  struct ownerLog{\r\n    address[] entitlements;\r\n  }\r\n\r\n  address[]  entitlements;\r\n  mapping(address=> ownerLog)  ownerlogs;\r\n\r\n  event newOwner(address _newOwner);\r\n  event subscription(address _subscription);\r\n\r\n/* local mapping of changes */\r\n\r\n  //logical log record\r\n\r\n  struct record {\r\n    uint _date;         // timestamp\r\n    status chStatus;    // status\r\n    address chOwner;    // Owner\r\n    address chOS;       // operating system\r\n    string chMemo;      // human readable change detail\r\n    bytes32 iteminfo;   // what item changed\r\n  }\r\n\r\n  // state mapping\r\n  mapping(uint=>record) chLog;\r\n\r\n  // counter\r\n  uint public chCnt;\r\n\r\n// log a chcange\r\n  function addChLog(status _chStatus, string _chMemo, bytes32 _itemInfo) public returns(bool success){\r\n      record storage r = chLog[chCnt];\r\n      r._date = now;\r\n      r.chStatus = _chStatus;\r\n      r.chOwner = Owner;\r\n      r.chOS = OS;\r\n      r.chMemo = _chMemo;\r\n      r.iteminfo = _itemInfo;\r\n      emit Logger(logType.statusUpdate, \"Change log updated\", _itemInfo, msg.sender);\r\n      chCnt = chCnt + 1;\r\n      return true;\r\n  }\r\n//retrieve a log record\r\n  function getChLogs(uint _logs) public view returns(uint, status, address, address, string, bytes32){\r\n      return (chLog[_logs]._date, chLog[_logs].chStatus, chLog[_logs].chOwner, chLog[_logs].chOS, chLog[_logs].chMemo, chLog[_logs].iteminfo);\r\n  }\r\n\r\n/* generate device\r\n * @dev  constructor that creates a device and assigns an owner\r\n*/\r\n\r\n constructor(address _Owner, bytes32 _deviceID, bytes32 _modelName, bytes32 _deviceType, bytes32 _deviceSku, bytes32 _OEM) public {\r\n\r\n     require(_deviceID.length > 0\r\n             && _modelName.length > 0\r\n             && _deviceType.length > 0);\r\n\r\n     deviceID = _deviceID;\r\n     modelName = _modelName;\r\n     deviceType = _deviceType;\r\n     OEM = _OEM;\r\n     OS = 0x0;\r\n\r\n     Owner = _Owner;\r\n     deviceSku = _deviceSku;\r\n\r\n     deviceStatus = status.Manufactured;\r\n     //startDate = now;\r\n }\r\n\r\n/* change owners\r\n * @param newOwner: the new owner of the device\r\n * @dev this can only be called by the current owner\r\n */\r\n\r\n function transferOwner(address _newOwner) public returns (bool success){\r\n     Owner = _newOwner;\r\n     emit newOwner(_newOwner);\r\n     return true;\r\n }\r\n\r\n function setOrg(bytes32 _org) public returns (bool success){\r\n     org = _org;\r\n     emit Logger(logType.statusUpdate, \"Org Changed\", _org , msg.sender);\r\n     return true;\r\n }\r\n\r\nfunction addOS(address _OS) returns(bool success){\r\n      require(OS==0x0);\r\n      OS = _OS;\r\n      return true;\r\n}\r\n\r\n\r\n\r\n/* local store of tokens\r\n * a local list of subscribed tokens to keep a local balances\r\n * @dev onlyAdmin\r\n */\r\n\r\n function subscribe(address _entitlement) public returns (bool success){\r\n     entitlements.push(_entitlement);\r\n     emit Logger(logType.statusUpdate, \"Software Added\", 0x0 , _entitlement);\r\n     return true;\r\n }\r\n\r\n /* local store of tokens\r\n  * a local list of subscribed tokens to keep a local balances\r\n  * @dev onlyAdmin\r\n  */\r\n\r\n\r\n function statusUpdate(status _status) public returns (bool success){\r\n    deviceStatus = _status;\r\n    emit Logger(logType.statusUpdate, \"Status Modified\", 0x0 , msg.sender);\r\n    return true;\r\n }\r\n\r\n/*\r\n  function unsubscribe(address _entitlement) public onlyAdmin returns (bool success){\r\n      for(i = 0; i < entitlements.length; i++){\r\n        if(entitlements[i] == _entitlement){\r\n          entitlements[i] = \"0x0000000000000000000000000000000000000001\";\r\n          }\r\n      }\r\n      emit Logger(logType.statusUpdate, \"Software removed\", 0x0 , _entitlement);\r\n\r\n      return true;\r\n  }\r\n*/\r\n\r\n/*\r\nfunction clearAll() public onlyAdmin returns (bool success){\r\n    entitlements = [];\r\n    return true;\r\n}\r\n*/\r\n/* get balance\r\n * get a devices balance for a entitlements\r\n * @param _entitlement : address of an entitlements\r\n */\r\n\r\n function getBalance(uint _entitlement) public view returns (uint256 deviceBalance, uint256 userBalance){\r\n     address entitlementAddr = entitlements[_entitlement];\r\n     DRMentitlement = DRMToken(entitlementAddr);\r\n     deviceBalance = DRMentitlement.balanceOf(this);\r\n     userBalance = DRMentitlement.balanceOf(Owner);\r\n     return (deviceBalance, userBalance);\r\n }\r\n\r\n function transferEnt(uint _entitlement, address _to, uint _value) public returns (bool success){\r\n     address entitlementAddr = entitlements[_entitlement];\r\n     DRMentitlement = DRMToken(entitlementAddr);\r\n     DRMentitlement.transfer(_to, _value);\r\n     emit Logger(logType.statusUpdate, \"Software Transferred\", 0x0 , getEntitlement(_entitlement));\r\n     return true;\r\n }\r\n\r\n\r\n function getEntitlement(uint _index) public view returns (address entitlement) {\r\n    return entitlements[_index];\r\n}\r\n function getEntitlementCount() public view returns (uint total) {\r\n    return entitlements.length;\r\n}\r\n\r\n// erc721 safety\r\n\r\nfunction onERC721Received(\r\n  address _operator,\r\n  address _from,\r\n  uint256 _tokenId,\r\n  bytes _data\r\n)\r\n  public\r\n  returns(bytes4)\r\n {return bytes4(keccak256(\"onERC721Received(address,address,uint256,bytes)\"));}\r\n\r\n}\r\n",
  "sourcePath": "C:\\Users\\cody.burns\\Documents\\github\\DELM\\chaincode\\contracts\\device.sol",
  "compiler": {
    "name": "solc",
    "version": "0.4.24+commit.e67f0147.Emscripten.clang"
  },
  "schemaVersion": "2.0.0",
  "updatedAt": "2018-08-07T17:49:36.343Z"
}