{
  "contractName": "DRMToken",
  "abi": [
    {
      "constant": true,
      "inputs": [],
      "name": "name",
      "outputs": [
        {
          "name": "",
          "type": "string"
        }
      ],
      "payable": false,
      "stateMutability": "view",
      "type": "function"
    },
    {
      "constant": true,
      "inputs": [
        {
          "name": "",
          "type": "address"
        }
      ],
      "name": "balances",
      "outputs": [
        {
          "name": "",
          "type": "uint256"
        }
      ],
      "payable": false,
      "stateMutability": "view",
      "type": "function"
    },
    {
      "constant": true,
      "inputs": [],
      "name": "decimals",
      "outputs": [
        {
          "name": "",
          "type": "uint8"
        }
      ],
      "payable": false,
      "stateMutability": "view",
      "type": "function"
    },
    {
      "constant": true,
      "inputs": [],
      "name": "version",
      "outputs": [
        {
          "name": "",
          "type": "string"
        }
      ],
      "payable": false,
      "stateMutability": "view",
      "type": "function"
    },
    {
      "constant": true,
      "inputs": [],
      "name": "exDate",
      "outputs": [
        {
          "name": "",
          "type": "uint256"
        }
      ],
      "payable": false,
      "stateMutability": "view",
      "type": "function"
    },
    {
      "constant": true,
      "inputs": [],
      "name": "icon",
      "outputs": [
        {
          "name": "",
          "type": "string"
        }
      ],
      "payable": false,
      "stateMutability": "view",
      "type": "function"
    },
    {
      "inputs": [
        {
          "name": "_name",
          "type": "string"
        },
        {
          "name": "_icon",
          "type": "string"
        },
        {
          "name": "_decimals",
          "type": "uint8"
        },
        {
          "name": "_initialSupply",
          "type": "uint256"
        },
        {
          "name": "expiration_Date",
          "type": "uint256"
        },
        {
          "name": "_version",
          "type": "string"
        }
      ],
      "payable": false,
      "stateMutability": "nonpayable",
      "type": "constructor"
    },
    {
      "anonymous": false,
      "inputs": [
        {
          "indexed": true,
          "name": "from",
          "type": "address"
        },
        {
          "indexed": true,
          "name": "to",
          "type": "address"
        },
        {
          "indexed": false,
          "name": "value",
          "type": "uint256"
        },
        {
          "indexed": true,
          "name": "data",
          "type": "bytes"
        }
      ],
      "name": "Transfer",
      "type": "event"
    },
    {
      "anonymous": false,
      "inputs": [
        {
          "indexed": false,
          "name": "value",
          "type": "uint256"
        }
      ],
      "name": "newMint",
      "type": "event"
    },
    {
      "anonymous": false,
      "inputs": [
        {
          "indexed": false,
          "name": "burner",
          "type": "address"
        },
        {
          "indexed": false,
          "name": "value",
          "type": "uint256"
        },
        {
          "indexed": false,
          "name": "data",
          "type": "bytes"
        }
      ],
      "name": "burnNotice",
      "type": "event"
    },
    {
      "constant": false,
      "inputs": [
        {
          "name": "value",
          "type": "uint256"
        }
      ],
      "name": "mint",
      "outputs": [
        {
          "name": "success",
          "type": "bool"
        }
      ],
      "payable": false,
      "stateMutability": "nonpayable",
      "type": "function"
    },
    {
      "constant": false,
      "inputs": [
        {
          "name": "_value",
          "type": "uint256"
        },
        {
          "name": "_data",
          "type": "bytes"
        }
      ],
      "name": "burns",
      "outputs": [
        {
          "name": "success",
          "type": "bool"
        }
      ],
      "payable": false,
      "stateMutability": "nonpayable",
      "type": "function"
    },
    {
      "constant": false,
      "inputs": [
        {
          "name": "_to",
          "type": "address"
        },
        {
          "name": "_value",
          "type": "uint256"
        }
      ],
      "name": "transfer",
      "outputs": [
        {
          "name": "success",
          "type": "bool"
        }
      ],
      "payable": false,
      "stateMutability": "nonpayable",
      "type": "function"
    },
    {
      "constant": true,
      "inputs": [
        {
          "name": "_owner",
          "type": "address"
        }
      ],
      "name": "balanceOf",
      "outputs": [
        {
          "name": "balance",
          "type": "uint256"
        }
      ],
      "payable": false,
      "stateMutability": "view",
      "type": "function"
    }
  ],
  "bytecode": "0x60806040524260085534801561001457600080fd5b50604051610d68380380610d6883398101806040528101908080518201929190602001805182019291906020018051906020019092919080519060200190929190805190602001909291908051820192919050505082600960003373ffffffffffffffffffffffffffffffffffffffff1673ffffffffffffffffffffffffffffffffffffffff168152602001908152602001600020819055508260038190555085600090805190602001906100ca929190610126565b5084600190805190602001906100e1929190610126565b5083600260006101000a81548160ff021916908360ff16021790555081600781905550806006908051906020019061011a929190610126565b505050505050506101cb565b828054600181600116156101000203166002900490600052602060002090601f016020900481019282601f1061016757805160ff1916838001178555610195565b82800160010185558215610195579182015b82811115610194578251825591602001919060010190610179565b5b5090506101a291906101a6565b5090565b6101c891905b808211156101c45760008160009055506001016101ac565b5090565b90565b610b8e806101da6000396000f3006080604052600436106100a4576000357c0100000000000000000000000000000000000000000000000000000000900463ffffffff16806306fdde03146100a957806327e235e314610139578063313ce567146101905780633ec06281146101c157806354fd4d501461024c57806370a08231146102dc5780639bf3649614610333578063a0712d681461035e578063a9059cbb146103a3578063c557b98514610408575b600080fd5b3480156100b557600080fd5b506100be610498565b6040518080602001828103825283818151815260200191508051906020019080838360005b838110156100fe5780820151818401526020810190506100e3565b50505050905090810190601f16801561012b5780820380516001836020036101000a031916815260200191505b509250505060405180910390f35b34801561014557600080fd5b5061017a600480360381019080803573ffffffffffffffffffffffffffffffffffffffff169060200190929190505050610536565b6040518082815260200191505060405180910390f35b34801561019c57600080fd5b506101a561054e565b604051808260ff1660ff16815260200191505060405180910390f35b3480156101cd57600080fd5b5061023260048036038101908080359060200190929190803590602001908201803590602001908080601f0160208091040260200160405190810160405280939291908181526020018383808284378201915050505050509192919290505050610561565b604051808215151515815260200191505060405180910390f35b34801561025857600080fd5b506102616106c1565b6040518080602001828103825283818151815260200191508051906020019080838360005b838110156102a1578082015181840152602081019050610286565b50505050905090810190601f1680156102ce5780820380516001836020036101000a031916815260200191505b509250505060405180910390f35b3480156102e857600080fd5b5061031d600480360381019080803573ffffffffffffffffffffffffffffffffffffffff16906020019092919050505061075f565b6040518082815260200191505060405180910390f35b34801561033f57600080fd5b506103486107a8565b6040518082815260200191505060405180910390f35b34801561036a57600080fd5b50610389600480360381019080803590602001909291905050506107ae565b604051808215151515815260200191505060405180910390f35b3480156103af57600080fd5b506103ee600480360381019080803573ffffffffffffffffffffffffffffffffffffffff169060200190929190803590602001909291905050506108aa565b604051808215151515815260200191505060405180910390f35b34801561041457600080fd5b5061041d6108df565b6040518080602001828103825283818151815260200191508051906020019080838360005b8381101561045d578082015181840152602081019050610442565b50505050905090810190601f16801561048a5780820380516001836020036101000a031916815260200191505b509250505060405180910390f35b60008054600181600116156101000203166002900480601f01602080910402602001604051908101604052809291908181526020018280546001816001161561010002031660029004801561052e5780601f106105035761010080835404028352916020019161052e565b820191906000526020600020905b81548152906001019060200180831161051157829003601f168201915b505050505081565b60096020528060005260406000206000915090505481565b600260009054906101000a900460ff1681565b60008261056d3361075f565b101561057857600080fd5b61058a6105843361075f565b8461097d565b600960003373ffffffffffffffffffffffffffffffffffffffff1673ffffffffffffffffffffffffffffffffffffffff168152602001908152602001600020819055506105d96003548461097d565b6003819055507f442b5a93342e32243ec9bd71fa7048b59a7e5b9657feccdbc394260d779f5e36338484604051808473ffffffffffffffffffffffffffffffffffffffff1673ffffffffffffffffffffffffffffffffffffffff16815260200183815260200180602001828103825283818151815260200191508051906020019080838360005b8381101561067b578082015181840152602081019050610660565b50505050905090810190601f1680156106a85780820380516001836020036101000a031916815260200191505b5094505050505060405180910390a16001905092915050565b60068054600181600116156101000203166002900480601f0160208091040260200160405190810160405280929190818152602001828054600181600116156101000203166002900480156107575780601f1061072c57610100808354040283529160200191610757565b820191906000526020600020905b81548152906001019060200180831161073a57829003601f168201915b505050505081565b6000600960008373ffffffffffffffffffffffffffffffffffffffff1673ffffffffffffffffffffffffffffffffffffffff168152602001908152602001600020549050919050565b60075481565b6000806007541415156107cc57600754421015156107cb57600080fd5b5b6107d860035483610996565b600381905550610827600960003373ffffffffffffffffffffffffffffffffffffffff1673ffffffffffffffffffffffffffffffffffffffff1681526020019081526020016000205483610996565b600960003373ffffffffffffffffffffffffffffffffffffffff1673ffffffffffffffffffffffffffffffffffffffff168152602001908152602001600020819055507faecc5f0f7b3fc75588acdbcf66be10ff96795b9ca17d9776f3a6246ca815def0826040518082815260200191505060405180910390a160019050919050565b6000606060006007541415156108cb57600754421015156108ca57600080fd5b5b6108d68484836109b2565b91505092915050565b60018054600181600116156101000203166002900480601f0160208091040260200160405190810160405280929190818152602001828054600181600116156101000203166002900480156109755780601f1061094a57610100808354040283529160200191610975565b820191906000526020600020905b81548152906001019060200180831161095857829003601f168201915b505050505081565b600082821115151561098b57fe5b818303905092915050565b600081830190508281101515156109a957fe5b80905092915050565b6000806007541415156109d057600754421015156109cf57600080fd5b5b826109da3361075f565b10156109e557600080fd5b6109f76109f13361075f565b8461097d565b600960003373ffffffffffffffffffffffffffffffffffffffff1673ffffffffffffffffffffffffffffffffffffffff16815260200190815260200160002081905550610a4c610a468561075f565b84610996565b600960008673ffffffffffffffffffffffffffffffffffffffff1673ffffffffffffffffffffffffffffffffffffffff16815260200190815260200160002081905550816040518082805190602001908083835b602083101515610ac55780518252602082019150602081019050602083039250610aa0565b6001836020036101000a03801982511681845116808217855250505050505090500191505060405180910390208473ffffffffffffffffffffffffffffffffffffffff163373ffffffffffffffffffffffffffffffffffffffff167fe19260aff97b920c7df27010903aeb9c8d2be5d310a2c67824cf3f15396e4c16866040518082815260200191505060405180910390a46001905093925050505600a165627a7a72305820f29ac95210bc5b5a3a94702192fcb6f3a0ef19b39c1c28f0b7e86ab742d6b1260029",
  "source": "pragma solidity ^0.4.24;\r\n\r\n/**\r\n * @title DRM token from Alpha\r\n * @dev ERC 20 like token from Alpha phase of project,\r\n */\r\n\r\n\r\nimport \"../Utils/safemath.sol\";\r\n\r\ncontract DRMToken is SafeMath {\r\n\r\n\r\n  enum productType{\r\n    subscription,\r\n    perpetual\r\n  }\r\n\r\n  string public name;\r\n  string public icon;\r\n  uint8 public decimals;\r\n  uint256 totalSupply;\r\n\r\n  string productDeveloper;\r\n  productType types;\r\n  string public version;\r\n\r\n  uint public exDate;\r\n  uint time = now;\r\n\r\n//map any address to a balance\r\n  mapping (address => uint256) public balances;\r\n\r\n/*\r\n * events\r\n */\r\n  event Transfer(address indexed from, address indexed to, uint value, bytes indexed data);\r\n  event newMint(uint value);\r\n  event burnNotice(address burner, uint value, bytes data);\r\n\r\n// only operate if the entitlement is not expired\r\n  modifier notExpired(){\r\n    if(exDate !=0){\r\n      require(now < exDate);\r\n      }\r\n    _;\r\n  }\r\n\r\n/*\r\n * Constructor function\r\n * @dev this is called by a software licensor who then becomes the owner\r\n * @param name: the name of the product\r\n * @param icon : icon url\r\n * @param decimals : not used for bool tokens can be used for consumption\r\n * @param initial supply : tokens at start, stored at owners addresses\r\n * @param experation_date : date after which the entitlement will stop functioning.\r\n*/\r\n\r\n constructor(string _name, string _icon, uint8 _decimals, uint256 _initialSupply, uint expiration_Date, string _version) public {\r\n      balances[msg.sender] = _initialSupply;\r\n      totalSupply = _initialSupply;\r\n      name = _name;\r\n      icon = _icon;\r\n      decimals = _decimals;\r\n      exDate = expiration_Date;\r\n      version = _version;\r\n  }\r\n\r\n  /*\r\n   * Function that is called to mint new tokens\r\n   * @param value: how many coins to make\r\n   * @dev can only be called by the owner, sends minted tokens to the owner address\r\n   */\r\n\r\n  function mint(uint value) public notExpired returns (bool success){\r\n    totalSupply = add(totalSupply, value);\r\n    balances[msg.sender] = add(balances[msg.sender], value);\r\n    emit newMint(value);\r\n    return true;\r\n  }\r\n\r\n/*\r\n * function called to burn tokens\r\n * @param value : how many to burnNotice\r\n * @param data : a byte string if a user wants to add some kind of hex message\r\n */\r\n   function burns(uint _value, bytes _data) public returns (bool success){\r\n    if (balanceOf(msg.sender) < _value) revert();\r\n    balances[msg.sender] = sub(balanceOf(msg.sender), _value);\r\n    totalSupply = sub(totalSupply, _value);\r\n    emit burnNotice(msg.sender, _value, _data);\r\n    return true;\r\n}\r\n\r\n  /* Function that is called when a user or another contract wants to transfer funds\r\n   * @param to : address to transfer a balance to\r\n   * @param value : how many units to send\r\n   * @dev only happens if msg sender has a balance and the entitlement is not expired\r\n   */\r\n  function transfer(address _to, uint _value) public notExpired returns (bool success) {\r\n    bytes memory empty;\r\n    return transferToAddress(_to, _value, empty);\r\n}\r\n\r\n  /* function that is called when transaction target is an address\r\n   *\r\n   * @dev internal function\r\n   */\r\n  function transferToAddress(address _to, uint _value, bytes _data) private notExpired returns (bool success) {\r\n    if (balanceOf(msg.sender) < _value) revert();\r\n    balances[msg.sender] = sub(balanceOf(msg.sender), _value);\r\n    balances[_to] = add(balanceOf(_to), _value);\r\n    emit Transfer(msg.sender, _to, _value, _data);\r\n    return true;\r\n  }\r\n\r\n\r\n  /*\r\n   * getter: returns balance of an addresses\r\n   * @param owner: address that we want to know a balance of\r\n   */\r\n  function balanceOf(address _owner) public view returns (uint balance) {\r\n    return balances[_owner];\r\n  }\r\n}\r\n",
  "sourcePath": "C:\\Users\\cody.burns\\Documents\\github\\DELM\\chaincode\\contracts\\Tokens\\DRMToken.sol",
  "compiler": {
    "name": "solc",
    "version": "0.4.24+commit.e67f0147.Emscripten.clang"
  },
  "schemaVersion": "2.0.0",
  "updatedAt": "2018-08-07T17:49:36.325Z"
}