{
  "contractName": "managed",
  "abi": [
    {
      "inputs": [
        {
          "name": "_manager",
          "type": "address"
        },
        {
          "name": "_registryID",
          "type": "address"
        }
      ],
      "payable": false,
      "stateMutability": "nonpayable",
      "type": "constructor"
    },
    {
      "anonymous": false,
      "inputs": [
        {
          "indexed": false,
          "name": "_type",
          "type": "uint8"
        },
        {
          "indexed": false,
          "name": "_memo",
          "type": "string"
        },
        {
          "indexed": false,
          "name": "_deviceID",
          "type": "bytes32"
        },
        {
          "indexed": false,
          "name": "_device",
          "type": "address"
        }
      ],
      "name": "Logger",
      "type": "event"
    },
    {
      "constant": true,
      "inputs": [
        {
          "name": "_data",
          "type": "bytes32"
        }
      ],
      "name": "bytes2string",
      "outputs": [
        {
          "name": "rData",
          "type": "string"
        }
      ],
      "payable": false,
      "stateMutability": "view",
      "type": "function"
    },
    {
      "constant": true,
      "inputs": [
        {
          "name": "_data",
          "type": "string"
        }
      ],
      "name": "string2bytes",
      "outputs": [
        {
          "name": "rData",
          "type": "bytes32"
        }
      ],
      "payable": false,
      "stateMutability": "view",
      "type": "function"
    }
  ],
  "bytecode": "0x6080604052600060010260029060001916905534801561001e57600080fd5b506040516040806103bb8339810180604052810190808051906020019092919080519060200190929190505050816000806101000a81548173ffffffffffffffffffffffffffffffffffffffff021916908373ffffffffffffffffffffffffffffffffffffffff16021790555080600160006101000a81548173ffffffffffffffffffffffffffffffffffffffff021916908373ffffffffffffffffffffffffffffffffffffffff16021790555050506102de806100dd6000396000f30060806040526004361061004c576000357c0100000000000000000000000000000000000000000000000000000000900463ffffffff168063ad54f86214610051578063f37013c9146100d6575b600080fd5b34801561005d57600080fd5b506100b8600480360381019080803590602001908201803590602001908080601f0160208091040260200160405190810160405280939291908181526020018383808284378201915050505050509192919290505050610180565b60405180826000191660001916815260200191505060405180910390f35b3480156100e257600080fd5b5061010560048036038101908080356000191690602001909291905050506101f5565b6040518080602001828103825283818151815260200191508051906020019080838360005b8381101561014557808201518184015260208101905061012a565b50505050905090810190601f1680156101725780820380516001836020036101000a031916815260200191505b509250505060405180910390f35b60006004826040518082805190602001908083835b6020831015156101ba5780518252602082019150602081019050602083039250610195565b6001836020036101000a0380198251168184511680821785525050505050509050019150509081526020016040518091039020549050919050565b60606003600083600019166000191681526020019081526020016000208054600181600116156101000203166002900480601f0160208091040260200160405190810160405280929190818152602001828054600181600116156101000203166002900480156102a65780601f1061027b576101008083540402835291602001916102a6565b820191906000526020600020905b81548152906001019060200180831161028957829003601f168201915b505050505090509190505600a165627a7a7230582051177655f61c95dc9af4cd4095a9d533cc673504ab3b1c6a061d42ede833ab4a0029",
  "source": "pragma solidity 0.4.24;\r\n\r\n/**\r\n * @title Managed\r\n * @dev role management modifiers, string mapping, and system wide fixed addresses\r\n */\r\nimport \"./rolemanager.sol\";\r\n\r\ncontract managed{\r\n    address manager;\r\n    address registryID;\r\n    bytes32 empty = 0x0000000000000000000000000000000000000000000000000000000000000000;\r\n\r\n    constructor(address _manager, address _registryID) public {\r\n      manager = _manager;\r\n      registryID = _registryID;\r\n      }\r\n\r\n    modifier onlyUser(){roleManager(manager).isUser(msg.sender); _;}\r\n    modifier onlyOEM(){roleManager(manager).isOEM(msg.sender); _;}\r\n    modifier onlySoftware(){roleManager(manager).isSoftware(msg.sender); _;}\r\n    modifier onlyAdmin(){roleManager(manager).isAdmin(msg.sender); _;}\r\n    modifier sameOrg(bytes32 _org){roleManager(manager).isOrg(msg.sender, _org); _;}\r\n\r\n    /* logging */\r\n    enum logType {statusUpdate,err}\r\n    event Logger(logType _type, string _memo, bytes32 _deviceID,  address _device);\r\n\r\n    /* string to byte functions */\r\n    mapping(bytes32 => string) output;\r\n    mapping(string => bytes32) bytesOutput;\r\n    function bytes2string(bytes32 _data) public view returns(string rData){return output[_data];}\r\n    function string2bytes(string _data) public view returns(bytes32 rData){return bytesOutput[_data];}\r\n\r\n\r\n}\r\n",
  "sourcePath": "C:\\Users\\cody.burns\\Documents\\github\\DELM\\chaincode\\contracts\\managed.sol",
  "compiler": {
    "name": "solc",
    "version": "0.4.24+commit.e67f0147.Emscripten.clang"
  },
  "schemaVersion": "2.0.0",
  "updatedAt": "2018-08-07T17:49:36.329Z"
}