{
  "contractName": "oth",
  "abi": [
    {
      "constant": true,
      "inputs": [
        {
          "name": "",
          "type": "uint256"
        }
      ],
      "name": "devices",
      "outputs": [
        {
          "name": "license",
          "type": "address"
        },
        {
          "name": "maker",
          "type": "address"
        },
        {
          "name": "deviceID",
          "type": "bytes32"
        },
        {
          "name": "othSerial",
          "type": "bytes32"
        },
        {
          "name": "modelName",
          "type": "bytes32"
        },
        {
          "name": "deviceType",
          "type": "bytes32"
        },
        {
          "name": "deviceSku",
          "type": "bytes32"
        }
      ],
      "payable": false,
      "stateMutability": "view",
      "type": "function"
    },
    {
      "constant": true,
      "inputs": [],
      "name": "deviceCount",
      "outputs": [
        {
          "name": "",
          "type": "uint256"
        }
      ],
      "payable": false,
      "stateMutability": "view",
      "type": "function"
    },
    {
      "constant": true,
      "inputs": [],
      "name": "owner",
      "outputs": [
        {
          "name": "",
          "type": "address"
        }
      ],
      "payable": false,
      "stateMutability": "view",
      "type": "function"
    },
    {
      "constant": true,
      "inputs": [
        {
          "name": "_data",
          "type": "string"
        }
      ],
      "name": "string2bytes",
      "outputs": [
        {
          "name": "rData",
          "type": "bytes32"
        }
      ],
      "payable": false,
      "stateMutability": "view",
      "type": "function"
    },
    {
      "constant": true,
      "inputs": [
        {
          "name": "_data",
          "type": "bytes32"
        }
      ],
      "name": "bytes2string",
      "outputs": [
        {
          "name": "rData",
          "type": "string"
        }
      ],
      "payable": false,
      "stateMutability": "view",
      "type": "function"
    },
    {
      "inputs": [
        {
          "name": "_owner",
          "type": "address"
        },
        {
          "name": "xManager",
          "type": "address"
        },
        {
          "name": "xRegistryID",
          "type": "address"
        }
      ],
      "payable": false,
      "stateMutability": "nonpayable",
      "type": "constructor"
    },
    {
      "anonymous": false,
      "inputs": [
        {
          "indexed": false,
          "name": "_type",
          "type": "uint8"
        },
        {
          "indexed": false,
          "name": "_memo",
          "type": "string"
        },
        {
          "indexed": false,
          "name": "_deviceID",
          "type": "bytes32"
        },
        {
          "indexed": false,
          "name": "_device",
          "type": "address"
        }
      ],
      "name": "Logger",
      "type": "event"
    },
    {
      "constant": false,
      "inputs": [
        {
          "name": "_modelName",
          "type": "bytes32"
        },
        {
          "name": "_deviceType",
          "type": "bytes32"
        },
        {
          "name": "_deviceSku",
          "type": "bytes32"
        },
        {
          "name": "OEM",
          "type": "bytes32"
        }
      ],
      "name": "addDevice",
      "outputs": [
        {
          "name": "success",
          "type": "bool"
        }
      ],
      "payable": false,
      "stateMutability": "nonpayable",
      "type": "function"
    }
  ],
  "bytecode": "0x60806040526000600102600290600019169055600060065534801561002357600080fd5b506040516060806125698339810180604052810190808051906020019092919080519060200190929190805190602001909291905050508181816000806101000a81548173ffffffffffffffffffffffffffffffffffffffff021916908373ffffffffffffffffffffffffffffffffffffffff16021790555080600160006101000a81548173ffffffffffffffffffffffffffffffffffffffff021916908373ffffffffffffffffffffffffffffffffffffffff160217905550505082600560006101000a81548173ffffffffffffffffffffffffffffffffffffffff021916908373ffffffffffffffffffffffffffffffffffffffff16021790555080600160006101000a81548173ffffffffffffffffffffffffffffffffffffffff021916908373ffffffffffffffffffffffffffffffffffffffff160217905550816000806101000a81548173ffffffffffffffffffffffffffffffffffffffff021916908373ffffffffffffffffffffffffffffffffffffffff1602179055505050506123b6806101b36000396000f300608060405260043610610078576000357c0100000000000000000000000000000000000000000000000000000000900463ffffffff16806310ff8e311461007d578063240c223414610168578063535bca9a146101db5780638da5cb5b14610206578063ad54f8621461025d578063f37013c9146102e2575b600080fd5b34801561008957600080fd5b506100a86004803603810190808035906020019092919050505061038c565b604051808873ffffffffffffffffffffffffffffffffffffffff1673ffffffffffffffffffffffffffffffffffffffff1681526020018773ffffffffffffffffffffffffffffffffffffffff1673ffffffffffffffffffffffffffffffffffffffff1681526020018660001916600019168152602001856000191660001916815260200184600019166000191681526020018360001916600019168152602001826000191660001916815260200197505050505050505060405180910390f35b34801561017457600080fd5b506101c1600480360381019080803560001916906020019092919080356000191690602001909291908035600019169060200190929190803560001916906020019092919050505061040e565b604051808215151515815260200191505060405180910390f35b3480156101e757600080fd5b506101f06107f6565b6040518082815260200191505060405180910390f35b34801561021257600080fd5b5061021b6107fc565b604051808273ffffffffffffffffffffffffffffffffffffffff1673ffffffffffffffffffffffffffffffffffffffff16815260200191505060405180910390f35b34801561026957600080fd5b506102c4600480360381019080803590602001908201803590602001908080601f0160208091040260200160405190810160405280939291908181526020018383808284378201915050505050509192919290505050610822565b60405180826000191660001916815260200191505060405180910390f35b3480156102ee57600080fd5b506103116004803603810190808035600019169060200190929190505050610897565b6040518080602001828103825283818151815260200191508051906020019080838360005b83811015610351578082015181840152602081019050610336565b50505050905090810190601f16801561037e5780820380516001836020036101000a031916815260200191505b509250505060405180910390f35b60076020528060005260406000206000915090508060000160009054906101000a900473ffffffffffffffffffffffffffffffffffffffff16908060010160009054906101000a900473ffffffffffffffffffffffffffffffffffffffff16908060020154908060030154908060040154908060050154908060060154905087565b6000806000808760019004876001900487600190046040516020018084815260200183815260200182815260200193505050506040516020818303038152906040526040518082805190602001908083835b6020831015156104855780518252602082019150602081019050602083039250610460565b6001836020036101000a03801982511681845116808217855250505050505090500191505060405180910390209250600160009054906101000a900473ffffffffffffffffffffffffffffffffffffffff1673ffffffffffffffffffffffffffffffffffffffff1663470b3186846040518263ffffffff167c0100000000000000000000000000000000000000000000000000000000028152600401808260001916600019168152602001915050602060405180830381600087803b15801561054d57600080fd5b505af1158015610561573d6000803e3d6000fd5b505050506040513d602081101561057757600080fd5b8101908080519060200190929190505050151561059357600080fd5b3383898989896105a1610954565b808773ffffffffffffffffffffffffffffffffffffffff1673ffffffffffffffffffffffffffffffffffffffff168152602001866000191660001916815260200185600019166000191681526020018460001916600019168152602001836000191660001916815260200182600019166000191681526020019650505050505050604051809103906000f08015801561063e573d6000803e3d6000fd5b509150600760006006548152602001908152602001600020905082816002018160001916905550818160000160006101000a81548173ffffffffffffffffffffffffffffffffffffffff021916908373ffffffffffffffffffffffffffffffffffffffff160217905550338160010160006101000a81548173ffffffffffffffffffffffffffffffffffffffff021916908373ffffffffffffffffffffffffffffffffffffffff1602179055508781600401816000191690555086816005018160001916905550858160060181600019169055507f426175ad8874b4bc4c13145c1188da49739d4a866decb2f6e1971a9807281962600084336040518084600181111561074757fe5b60ff1681526020018060200184600019166000191681526020018373ffffffffffffffffffffffffffffffffffffffff1673ffffffffffffffffffffffffffffffffffffffff1681526020018281038252600c8152602001807f446576696365204164646564000000000000000000000000000000000000000081525060200194505050505060405180910390a160066000815480929190600101919050555060019350505050949350505050565b60065481565b600560009054906101000a900473ffffffffffffffffffffffffffffffffffffffff1681565b60006004826040518082805190602001908083835b60208310151561085c5780518252602082019150602081019050602083039250610837565b6001836020036101000a0380198251168184511680821785525050505050509050019150509081526020016040518091039020549050919050565b60606003600083600019166000191681526020019081526020016000208054600181600116156101000203166002900480601f0160208091040260200160405190810160405280929190818152602001828054600181600116156101000203166002900480156109485780601f1061091d57610100808354040283529160200191610948565b820191906000526020600020905b81548152906001019060200180831161092b57829003601f168201915b50505050509050919050565b604051611a2680610965833901905600608060405234801561001057600080fd5b5060405160c080611a268339810180604052810190808051906020019092919080519060200190929190805190602001909291908051906020019092919080519060200190929190805190602001909291905050506000602060ff1611801561007d57506000602060ff16115b801561008d57506000602060ff16115b151561009857600080fd5b84600581600019169055508360078160001916905550826008816000191690555080600a81600019169055506000600b60006101000a81548173ffffffffffffffffffffffffffffffffffffffff021916908373ffffffffffffffffffffffffffffffffffffffff160217905550856000806101000a81548173ffffffffffffffffffffffffffffffffffffffff021916908373ffffffffffffffffffffffffffffffffffffffff16021790555081600981600019169055506000600260006101000a81548160ff0219169083600581111561017057fe5b021790555050505050505061189c8061018a6000396000f30060806040526004361061013e576000357c0100000000000000000000000000000000000000000000000000000000900463ffffffff16806301e0d330146101435780630336c8391461019a5780630b97bc86146102d1578063150b7a02146102fc5780631e01043914610401578063244ce20a146104495780632839e9c0146104a457806330960980146104dd57806341a7726a146105795780634f2ad58f146105d45780634fb2e45d146106075780636013cdc2146106625780636b37de3f1461069557806381d0faaa146106de578063a77bec8214610711578063a81675c71461077e578063b4a99a4e146107b1578063ba8cc75414610808578063c24a0f8b14610833578063c798c4671461085e578063d57f5cf914610891578063d9d29726146108c4578063e650c71a1461090c578063f9cce5fc1461097b575b600080fd5b34801561014f57600080fd5b506101586109a6565b604051808273ffffffffffffffffffffffffffffffffffffffff1673ffffffffffffffffffffffffffffffffffffffff16815260200191505060405180910390f35b3480156101a657600080fd5b506101c5600480360381019080803590602001909291905050506109cc565b604051808781526020018660058111156101db57fe5b60ff1681526020018573ffffffffffffffffffffffffffffffffffffffff1673ffffffffffffffffffffffffffffffffffffffff1681526020018473ffffffffffffffffffffffffffffffffffffffff1673ffffffffffffffffffffffffffffffffffffffff168152602001806020018360001916600019168152602001828103825284818151815260200191508051906020019080838360005b83811015610291578082015181840152602081019050610276565b50505050905090810190601f1680156102be5780820380516001836020036101000a031916815260200191505b5097505050505050505060405180910390f35b3480156102dd57600080fd5b506102e6610b5d565b6040518082815260200191505060405180910390f35b34801561030857600080fd5b506103ad600480360381019080803573ffffffffffffffffffffffffffffffffffffffff169060200190929190803573ffffffffffffffffffffffffffffffffffffffff16906020019092919080359060200190929190803590602001908201803590602001908080601f0160208091040260200160405190810160405280939291908181526020018383808284378201915050505050509192919290505050610b63565b60405180827bffffffffffffffffffffffffffffffffffffffffffffffffffffffff19167bffffffffffffffffffffffffffffffffffffffffffffffffffffffff1916815260200191505060405180910390f35b34801561040d57600080fd5b5061042c60048036038101908080359060200190929190505050610bcb565b604051808381526020018281526020019250505060405180910390f35b34801561045557600080fd5b5061048a600480360381019080803573ffffffffffffffffffffffffffffffffffffffff169060200190929190505050610e6e565b604051808215151515815260200191505060405180910390f35b3480156104b057600080fd5b506104b9610f00565b604051808260058111156104c957fe5b60ff16815260200191505060405180910390f35b3480156104e957600080fd5b5061055f600480360381019080803560ff169060200190929190803590602001908201803590602001908080601f01602080910402602001604051908101604052809392919081815260200183838082843782019150505050505091929192908035600019169060200190929190505050610f13565b604051808215151515815260200191505060405180910390f35b34801561058557600080fd5b506105ba600480360381019080803573ffffffffffffffffffffffffffffffffffffffff169060200190929190505050611125565b604051808215151515815260200191505060405180910390f35b3480156105e057600080fd5b506105e9611258565b60405180826000191660001916815260200191505060405180910390f35b34801561061357600080fd5b50610648600480360381019080803573ffffffffffffffffffffffffffffffffffffffff16906020019092919050505061125e565b604051808215151515815260200191505060405180910390f35b34801561066e57600080fd5b5061067761130c565b60405180826000191660001916815260200191505060405180910390f35b3480156106a157600080fd5b506106c46004803603810190808035600019169060200190929190505050611312565b604051808215151515815260200191505060405180910390f35b3480156106ea57600080fd5b506106f36113eb565b60405180826000191660001916815260200191505060405180910390f35b34801561071d57600080fd5b5061073c600480360381019080803590602001909291905050506113f1565b604051808273ffffffffffffffffffffffffffffffffffffffff1673ffffffffffffffffffffffffffffffffffffffff16815260200191505060405180910390f35b34801561078a57600080fd5b50610793611434565b60405180826000191660001916815260200191505060405180910390f35b3480156107bd57600080fd5b506107c661143a565b604051808273ffffffffffffffffffffffffffffffffffffffff1673ffffffffffffffffffffffffffffffffffffffff16815260200191505060405180910390f35b34801561081457600080fd5b5061081d61145f565b6040518082815260200191505060405180910390f35b34801561083f57600080fd5b50610848611465565b6040518082815260200191505060405180910390f35b34801561086a57600080fd5b5061087361146b565b60405180826000191660001916815260200191505060405180910390f35b34801561089d57600080fd5b506108a6611471565b60405180826000191660001916815260200191505060405180910390f35b3480156108d057600080fd5b506108f2600480360381019080803560ff169060200190929190505050611477565b604051808215151515815260200191505060405180910390f35b34801561091857600080fd5b5061096160048036038101908080359060200190929190803573ffffffffffffffffffffffffffffffffffffffff16906020019092919080359060200190929190505050611567565b604051808215151515815260200191505060405180910390f35b34801561098757600080fd5b506109906117be565b6040518082815260200191505060405180910390f35b600b60009054906101000a900473ffffffffffffffffffffffffffffffffffffffff1681565b60008060008060606000600f600088815260200190815260200160002060000154600f600089815260200190815260200160002060010160009054906101000a900460ff16600f60008a815260200190815260200160002060010160019054906101000a900473ffffffffffffffffffffffffffffffffffffffff16600f60008b815260200190815260200160002060020160009054906101000a900473ffffffffffffffffffffffffffffffffffffffff16600f60008c8152602001908152602001600020600301600f60008d815260200190815260200160002060040154818054600181600116156101000203166002900480601f016020809104026020016040519081016040528092919081815260200182805460018160011615610100020316600290048015610b415780601f10610b1657610100808354040283529160200191610b41565b820191906000526020600020905b815481529060010190602001808311610b2457829003601f168201915b5050505050915095509550955095509550955091939550919395565b60035481565b600060405180807f6f6e455243373231526563656976656428616464726573732c6164647265737381526020017f2c75696e743235362c6279746573290000000000000000000000000000000000815250602f01905060405180910390209050949350505050565b6000806000600d84815481101515610bdf57fe5b9060005260206000200160009054906101000a900473ffffffffffffffffffffffffffffffffffffffff16905080600c60006101000a81548173ffffffffffffffffffffffffffffffffffffffff021916908373ffffffffffffffffffffffffffffffffffffffff160217905550600c60009054906101000a900473ffffffffffffffffffffffffffffffffffffffff1673ffffffffffffffffffffffffffffffffffffffff166370a08231306040518263ffffffff167c0100000000000000000000000000000000000000000000000000000000028152600401808273ffffffffffffffffffffffffffffffffffffffff1673ffffffffffffffffffffffffffffffffffffffff168152602001915050602060405180830381600087803b158015610d0a57600080fd5b505af1158015610d1e573d6000803e3d6000fd5b505050506040513d6020811015610d3457600080fd5b81019080805190602001909291905050509250600c60009054906101000a900473ffffffffffffffffffffffffffffffffffffffff1673ffffffffffffffffffffffffffffffffffffffff166370a082316000809054906101000a900473ffffffffffffffffffffffffffffffffffffffff166040518263ffffffff167c0100000000000000000000000000000000000000000000000000000000028152600401808273ffffffffffffffffffffffffffffffffffffffff1673ffffffffffffffffffffffffffffffffffffffff168152602001915050602060405180830381600087803b158015610e2557600080fd5b505af1158015610e39573d6000803e3d6000fd5b505050506040513d6020811015610e4f57600080fd5b8101908080519060200190929190505050915082829250925050915091565b600080600b60009054906101000a900473ffffffffffffffffffffffffffffffffffffffff1673ffffffffffffffffffffffffffffffffffffffff16141515610eb657600080fd5b81600b60006101000a81548173ffffffffffffffffffffffffffffffffffffffff021916908373ffffffffffffffffffffffffffffffffffffffff16021790555060019050919050565b600260009054906101000a900460ff1681565b600080600f600060105481526020019081526020016000209050428160000181905550848160010160006101000a81548160ff02191690836005811115610f5657fe5b02179055506000809054906101000a900473ffffffffffffffffffffffffffffffffffffffff168160010160016101000a81548173ffffffffffffffffffffffffffffffffffffffff021916908373ffffffffffffffffffffffffffffffffffffffff160217905550600b60009054906101000a900473ffffffffffffffffffffffffffffffffffffffff168160020160006101000a81548173ffffffffffffffffffffffffffffffffffffffff021916908373ffffffffffffffffffffffffffffffffffffffff1602179055508381600301908051906020019061103c9291906117cb565b50828160040181600019169055507f426175ad8874b4bc4c13145c1188da49739d4a866decb2f6e1971a9807281962600084336040518084600181111561107f57fe5b60ff1681526020018060200184600019166000191681526020018373ffffffffffffffffffffffffffffffffffffffff1673ffffffffffffffffffffffffffffffffffffffff168152602001828103825260128152602001807f4368616e6765206c6f672075706461746564000000000000000000000000000081525060200194505050505060405180910390a160016010540160108190555060019150509392505050565b6000600d8290806001815401808255809150509060018203906000526020600020016000909192909190916101000a81548173ffffffffffffffffffffffffffffffffffffffff021916908373ffffffffffffffffffffffffffffffffffffffff160217905550507f426175ad8874b4bc4c13145c1188da49739d4a866decb2f6e1971a980728196260008084604051808460018111156111c257fe5b60ff16815260200180602001846001026000191681526020018373ffffffffffffffffffffffffffffffffffffffff1673ffffffffffffffffffffffffffffffffffffffff1681526020018281038252600e8152602001807f536f66747761726520416464656400000000000000000000000000000000000081525060200194505050505060405180910390a160019050919050565b60095481565b6000816000806101000a81548173ffffffffffffffffffffffffffffffffffffffff021916908373ffffffffffffffffffffffffffffffffffffffff1602179055507f8595245435170930a21ed26c79efd78952513e5f85ae3d411a586ab25df17bb382604051808273ffffffffffffffffffffffffffffffffffffffff1673ffffffffffffffffffffffffffffffffffffffff16815260200191505060405180910390a160019050919050565b60055481565b600081600181600019169055507f426175ad8874b4bc4c13145c1188da49739d4a866decb2f6e1971a9807281962600083336040518084600181111561135457fe5b60ff1681526020018060200184600019166000191681526020018373ffffffffffffffffffffffffffffffffffffffff1673ffffffffffffffffffffffffffffffffffffffff1681526020018281038252600b8152602001807f4f7267204368616e67656400000000000000000000000000000000000000000081525060200194505050505060405180910390a160019050919050565b60085481565b6000600d8281548110151561140257fe5b9060005260206000200160009054906101000a900473ffffffffffffffffffffffffffffffffffffffff169050919050565b60075481565b6000809054906101000a900473ffffffffffffffffffffffffffffffffffffffff1681565b60105481565b60045481565b60065481565b600a5481565b600081600260006101000a81548160ff0219169083600581111561149757fe5b02179055507f426175ad8874b4bc4c13145c1188da49739d4a866decb2f6e1971a980728196260008033604051808460018111156114d157fe5b60ff16815260200180602001846001026000191681526020018373ffffffffffffffffffffffffffffffffffffffff1673ffffffffffffffffffffffffffffffffffffffff1681526020018281038252600f8152602001807f537461747573204d6f646966696564000000000000000000000000000000000081525060200194505050505060405180910390a160019050919050565b600080600d8581548110151561157957fe5b9060005260206000200160009054906101000a900473ffffffffffffffffffffffffffffffffffffffff16905080600c60006101000a81548173ffffffffffffffffffffffffffffffffffffffff021916908373ffffffffffffffffffffffffffffffffffffffff160217905550600c60009054906101000a900473ffffffffffffffffffffffffffffffffffffffff1673ffffffffffffffffffffffffffffffffffffffff1663a9059cbb85856040518363ffffffff167c0100000000000000000000000000000000000000000000000000000000028152600401808373ffffffffffffffffffffffffffffffffffffffff1673ffffffffffffffffffffffffffffffffffffffff16815260200182815260200192505050602060405180830381600087803b1580156116ac57600080fd5b505af11580156116c0573d6000803e3d6000fd5b505050506040513d60208110156116d657600080fd5b8101908080519060200190929190505050507f426175ad8874b4bc4c13145c1188da49739d4a866decb2f6e1971a9807281962600080611715886113f1565b6040518084600181111561172557fe5b60ff16815260200180602001846001026000191681526020018373ffffffffffffffffffffffffffffffffffffffff1673ffffffffffffffffffffffffffffffffffffffff168152602001828103825260148152602001807f536f667477617265205472616e7366657272656400000000000000000000000081525060200194505050505060405180910390a160019150509392505050565b6000600d80549050905090565b828054600181600116156101000203166002900490600052602060002090601f016020900481019282601f1061180c57805160ff191683800117855561183a565b8280016001018555821561183a579182015b8281111561183957825182559160200191906001019061181e565b5b509050611847919061184b565b5090565b61186d91905b80821115611869576000816000905550600101611851565b5090565b905600a165627a7a723058200bc143e2f3514a15700b1e01381c92a741ef6cafa221706c04db99b85db232c70029a165627a7a72305820aff352209d34af5977fe98b6c94ca0f48feac086f8d3394b60c954187631bb520029",
  "source": "pragma solidity ^0.4.24;\r\n\r\n/**\r\n * @title Trash Factory(working title)\r\n * @dev Contract for deploying a device on chain\r\n */\r\n\r\nimport \"../managed.sol\";\r\nimport \"../rolemanager.sol\";\r\nimport \"../registry.sol\";\r\nimport \"../device.sol\";\r\nimport \"../Tokens/DRMToken.sol\";\r\n\r\ncontract oth is managed{\r\n    address public owner;\r\n\r\n    struct device{\r\n     address license;\r\n     address maker;\r\n     bytes32 deviceID;\r\n     bytes32 othSerial;\r\n     bytes32 modelName;\r\n     bytes32 deviceType;\r\n     bytes32 deviceSku;\r\n     }\r\n\r\n    uint public deviceCount = 0 ;\r\n\r\n    mapping(uint => device) public devices;\r\n\r\n\r\nconstructor(address _owner,address xManager,address xRegistryID) managed(xManager,xRegistryID) public {\r\n  owner = _owner;\r\n  registryID = xRegistryID;\r\n  manager = xManager;\r\n}\r\n\r\n function addDevice(bytes32 _modelName, bytes32 _deviceType, bytes32 _deviceSku, bytes32 OEM) public returns(bool success){\r\n\r\n     bytes32 _deviceID = keccak256(abi.encodePacked(uint(_modelName),uint( _deviceType),uint(_deviceSku)));\r\n\r\n    //make sure the device is unique\r\n    require(registry(registryID).device(_deviceID));\r\n\r\n    //create a device contract\r\n      Device genDevice = new Device(msg.sender, _deviceID, _modelName, _deviceType, _deviceSku, OEM);\r\n\r\n    //store the data on new device\r\n      device storage d = devices[deviceCount];\r\n      d.deviceID = _deviceID;\r\n      d.license = genDevice;\r\n      d.maker = msg.sender;\r\n\r\n      d.modelName = _modelName;\r\n      d.deviceType = _deviceType;\r\n      d.deviceSku = _deviceSku;\r\n      emit Logger(logType.statusUpdate, \"Device Added\", _deviceID, msg.sender);\r\n      deviceCount++;\r\n      return true;\r\n    }\r\n  }\r\n",
  "sourcePath": "C:\\Users\\cody.burns\\Documents\\github\\DELM\\chaincode\\contracts\\Factorys\\OTH.sol",
  "compiler": {
    "name": "solc",
    "version": "0.4.24+commit.e67f0147.Emscripten.clang"
  },
  "schemaVersion": "2.0.0",
  "updatedAt": "2018-08-07T00:41:27.719Z"
}