{
  "contractName": "registry",
  "abi": [
    {
      "constant": true,
      "inputs": [
        {
          "name": "_data",
          "type": "string"
        }
      ],
      "name": "string2bytes",
      "outputs": [
        {
          "name": "rData",
          "type": "bytes32"
        }
      ],
      "payable": false,
      "stateMutability": "view",
      "type": "function"
    },
    {
      "constant": true,
      "inputs": [
        {
          "name": "_data",
          "type": "bytes32"
        }
      ],
      "name": "bytes2string",
      "outputs": [
        {
          "name": "rData",
          "type": "string"
        }
      ],
      "payable": false,
      "stateMutability": "view",
      "type": "function"
    },
    {
      "inputs": [
        {
          "name": "xManager",
          "type": "address"
        },
        {
          "name": "xRegistryID",
          "type": "address"
        }
      ],
      "payable": false,
      "stateMutability": "nonpayable",
      "type": "constructor"
    },
    {
      "anonymous": false,
      "inputs": [
        {
          "indexed": false,
          "name": "_type",
          "type": "uint8"
        },
        {
          "indexed": false,
          "name": "_memo",
          "type": "string"
        },
        {
          "indexed": false,
          "name": "_deviceID",
          "type": "bytes32"
        },
        {
          "indexed": false,
          "name": "_device",
          "type": "address"
        }
      ],
      "name": "Logger",
      "type": "event"
    },
    {
      "constant": false,
      "inputs": [
        {
          "name": "_deviceID",
          "type": "bytes32"
        }
      ],
      "name": "device",
      "outputs": [
        {
          "name": "success",
          "type": "bool"
        }
      ],
      "payable": false,
      "stateMutability": "nonpayable",
      "type": "function"
    },
    {
      "constant": false,
      "inputs": [
        {
          "name": "_PKID",
          "type": "bytes32"
        }
      ],
      "name": "software",
      "outputs": [
        {
          "name": "success",
          "type": "bool"
        }
      ],
      "payable": false,
      "stateMutability": "nonpayable",
      "type": "function"
    }
  ],
  "bytecode": "0x6080604052600060010260029060001916905534801561001e57600080fd5b5060405160408061094f83398101806040528101908080519060200190929190805190602001909291905050508181816000806101000a81548173ffffffffffffffffffffffffffffffffffffffff021916908373ffffffffffffffffffffffffffffffffffffffff16021790555080600160006101000a81548173ffffffffffffffffffffffffffffffffffffffff021916908373ffffffffffffffffffffffffffffffffffffffff1602179055505050505061086e806100e16000396000f300608060405260043610610062576000357c0100000000000000000000000000000000000000000000000000000000900463ffffffff168063470b318614610067578063a3062b93146100b0578063ad54f862146100f9578063f37013c91461017e575b600080fd5b34801561007357600080fd5b506100966004803603810190808035600019169060200190929190505050610228565b604051808215151515815260200191505060405180910390f35b3480156100bc57600080fd5b506100df600480360381019080803560001916906020019092919050505061049c565b604051808215151515815260200191505060405180910390f35b34801561010557600080fd5b50610160600480360381019080803590602001908201803590602001908080601f0160208091040260200160405190810160405280939291908181526020018383808284378201915050505050509192919290505050610710565b60405180826000191660001916815260200191505060405180910390f35b34801561018a57600080fd5b506101ad6004803603810190808035600019169060200190929190505050610785565b6040518080602001828103825283818151815260200191508051906020019080838360005b838110156101ed5780820151818401526020810190506101d2565b50505050905090810190601f16801561021a5780820380516001836020036101000a031916815260200191505b509250505060405180910390f35b6000806000809054906101000a900473ffffffffffffffffffffffffffffffffffffffff1673ffffffffffffffffffffffffffffffffffffffff1663aa9d20de336040518263ffffffff167c0100000000000000000000000000000000000000000000000000000000028152600401808273ffffffffffffffffffffffffffffffffffffffff1673ffffffffffffffffffffffffffffffffffffffff168152602001915050602060405180830381600087803b1580156102e757600080fd5b505af11580156102fb573d6000803e3d6000fd5b505050506040513d602081101561031157600080fd5b810190808051906020019092919050505050600560008460405180826000191660001916815260200191505060405180910390206000191660001916815260200190815260200160002060009054906101000a900460ff1690506000151581151514151561037e57600080fd5b6001600560008560405180826000191660001916815260200191505060405180910390206000191660001916815260200190815260200160002060006101000a81548160ff0219169083151502179055507f426175ad8874b4bc4c13145c1188da49739d4a866decb2f6e1971a9807281962600084336040518084600181111561040457fe5b60ff1681526020018060200184600019166000191681526020018373ffffffffffffffffffffffffffffffffffffffff1673ffffffffffffffffffffffffffffffffffffffff1681526020018281038252600c8152602001807f446576696365204164646564000000000000000000000000000000000000000081525060200194505050505060405180910390a16001915050919050565b6000806000809054906101000a900473ffffffffffffffffffffffffffffffffffffffff1673ffffffffffffffffffffffffffffffffffffffff1663548014c7336040518263ffffffff167c0100000000000000000000000000000000000000000000000000000000028152600401808273ffffffffffffffffffffffffffffffffffffffff1673ffffffffffffffffffffffffffffffffffffffff168152602001915050602060405180830381600087803b15801561055b57600080fd5b505af115801561056f573d6000803e3d6000fd5b505050506040513d602081101561058557600080fd5b810190808051906020019092919050505050600560008460405180826000191660001916815260200191505060405180910390206000191660001916815260200190815260200160002060009054906101000a900460ff169050600015158115151415156105f257600080fd5b6001600560008560405180826000191660001916815260200191505060405180910390206000191660001916815260200190815260200160002060006101000a81548160ff0219169083151502179055507f426175ad8874b4bc4c13145c1188da49739d4a866decb2f6e1971a9807281962600084336040518084600181111561067857fe5b60ff1681526020018060200184600019166000191681526020018373ffffffffffffffffffffffffffffffffffffffff1673ffffffffffffffffffffffffffffffffffffffff1681526020018281038252600e8152602001807f536f66747761726520416464656400000000000000000000000000000000000081525060200194505050505060405180910390a16001915050919050565b60006004826040518082805190602001908083835b60208310151561074a5780518252602082019150602081019050602083039250610725565b6001836020036101000a0380198251168184511680821785525050505050509050019150509081526020016040518091039020549050919050565b60606003600083600019166000191681526020019081526020016000208054600181600116156101000203166002900480601f0160208091040260200160405190810160405280929190818152602001828054600181600116156101000203166002900480156108365780601f1061080b57610100808354040283529160200191610836565b820191906000526020600020905b81548152906001019060200180831161081957829003601f168201915b505050505090509190505600a165627a7a7230582083a68ea21ea976443627d39452c72110d8826288c873054c4871e8e0f93495a60029",
  "source": "pragma solidity 0.4.24;\r\n\r\n/**\r\n * @title Registry\r\n * @dev System wide registry management on chain\r\n */\r\n\r\nimport \"./managed.sol\";\r\n\r\ncontract registry is managed{\r\n\r\n    mapping(bytes32 => bool) devices;\r\n    mapping(bytes32 => bool) PKID;\r\n\r\n    constructor(address xManager, address xRegistryID) managed(xManager,xRegistryID) public {\r\n    }\r\n\r\n    function device(bytes32 _deviceID) public onlyOEM returns(bool success){\r\n        bool test = devices[keccak256(_deviceID)];\r\n        require(test == false);\r\n        devices[keccak256(_deviceID)] = true;\r\n        emit Logger(logType.statusUpdate, \"Device Added\", _deviceID, msg.sender);\r\n        return true;\r\n    }\r\n\r\n    function software(bytes32 _PKID) public onlySoftware returns(bool success){\r\n        bool test = devices[keccak256(_PKID)];\r\n        require(test == false);\r\n        devices[keccak256(_PKID)] = true;\r\n        emit Logger(logType.statusUpdate, \"Software Added\", _PKID, msg.sender);\r\n        return true;\r\n    }\r\n\r\n\r\n}\r\n",
  "sourcePath": "C:\\Users\\cody.burns\\Documents\\github\\DELM\\chaincode\\contracts\\registry.sol",
  "compiler": {
    "name": "solc",
    "version": "0.4.24+commit.e67f0147.Emscripten.clang"
  },
  "schemaVersion": "2.0.0",
  "updatedAt": "2018-08-07T17:49:36.331Z"
}