{
  "contractName": "roleManager",
  "abi": [
    {
      "constant": true,
      "inputs": [
        {
          "name": "",
          "type": "address"
        }
      ],
      "name": "users",
      "outputs": [
        {
          "name": "isAdmin",
          "type": "bool"
        },
        {
          "name": "isOEM",
          "type": "bool"
        },
        {
          "name": "isSoftware",
          "type": "bool"
        },
        {
          "name": "isUser",
          "type": "bool"
        },
        {
          "name": "org",
          "type": "bytes32"
        }
      ],
      "payable": false,
      "stateMutability": "view",
      "type": "function"
    },
    {
      "inputs": [],
      "payable": false,
      "stateMutability": "nonpayable",
      "type": "constructor"
    },
    {
      "constant": false,
      "inputs": [
        {
          "name": "_newUser",
          "type": "address"
        }
      ],
      "name": "chUser",
      "outputs": [
        {
          "name": "success",
          "type": "bool"
        }
      ],
      "payable": false,
      "stateMutability": "nonpayable",
      "type": "function"
    },
    {
      "constant": false,
      "inputs": [
        {
          "name": "_newUser",
          "type": "address"
        }
      ],
      "name": "chSoftware",
      "outputs": [
        {
          "name": "success",
          "type": "bool"
        }
      ],
      "payable": false,
      "stateMutability": "nonpayable",
      "type": "function"
    },
    {
      "constant": false,
      "inputs": [
        {
          "name": "_newUser",
          "type": "address"
        }
      ],
      "name": "chOEM",
      "outputs": [
        {
          "name": "success",
          "type": "bool"
        }
      ],
      "payable": false,
      "stateMutability": "nonpayable",
      "type": "function"
    },
    {
      "constant": false,
      "inputs": [
        {
          "name": "_newUser",
          "type": "address"
        }
      ],
      "name": "chAdmin",
      "outputs": [
        {
          "name": "success",
          "type": "bool"
        }
      ],
      "payable": false,
      "stateMutability": "nonpayable",
      "type": "function"
    },
    {
      "constant": false,
      "inputs": [
        {
          "name": "_newUser",
          "type": "address"
        },
        {
          "name": "_org",
          "type": "bytes32"
        }
      ],
      "name": "chOrg",
      "outputs": [
        {
          "name": "success",
          "type": "bool"
        }
      ],
      "payable": false,
      "stateMutability": "nonpayable",
      "type": "function"
    },
    {
      "constant": true,
      "inputs": [
        {
          "name": "_user",
          "type": "address"
        }
      ],
      "name": "isUser",
      "outputs": [
        {
          "name": "success",
          "type": "bool"
        }
      ],
      "payable": false,
      "stateMutability": "view",
      "type": "function"
    },
    {
      "constant": true,
      "inputs": [
        {
          "name": "_user",
          "type": "address"
        }
      ],
      "name": "isSoftware",
      "outputs": [
        {
          "name": "success",
          "type": "bool"
        }
      ],
      "payable": false,
      "stateMutability": "view",
      "type": "function"
    },
    {
      "constant": true,
      "inputs": [
        {
          "name": "_user",
          "type": "address"
        }
      ],
      "name": "isOEM",
      "outputs": [
        {
          "name": "",
          "type": "bool"
        }
      ],
      "payable": false,
      "stateMutability": "view",
      "type": "function"
    },
    {
      "constant": true,
      "inputs": [
        {
          "name": "_user",
          "type": "address"
        }
      ],
      "name": "isAdmin",
      "outputs": [
        {
          "name": "",
          "type": "bool"
        }
      ],
      "payable": false,
      "stateMutability": "view",
      "type": "function"
    },
    {
      "constant": true,
      "inputs": [
        {
          "name": "_user",
          "type": "address"
        },
        {
          "name": "_org",
          "type": "bytes32"
        }
      ],
      "name": "isOrg",
      "outputs": [
        {
          "name": "",
          "type": "bool"
        }
      ],
      "payable": false,
      "stateMutability": "view",
      "type": "function"
    }
  ],
  "bytecode": "0x608060405234801561001057600080fd5b5060016000803373ffffffffffffffffffffffffffffffffffffffff1673ffffffffffffffffffffffffffffffffffffffff16815260200190815260200160002060000160006101000a81548160ff021916908315150217905550610c7d8061007a6000396000f3006080604052600436106100af576000357c0100000000000000000000000000000000000000000000000000000000900463ffffffff1680630f4d87eb146100b45780630ffa86911461010f57806324d7806c146101785780633fa286b9146101d35780634209fff11461022e578063548014c71461028957806364136c55146102e45780638a5f9a0a1461033f578063a87430ba1461039a578063aa9d20de14610425578063cd4fdea914610480575b600080fd5b3480156100c057600080fd5b506100f5600480360381019080803573ffffffffffffffffffffffffffffffffffffffff1690602001909291905050506104e9565b604051808215151515815260200191505060405180910390f35b34801561011b57600080fd5b5061015e600480360381019080803573ffffffffffffffffffffffffffffffffffffffff16906020019092919080356000191690602001909291905050506105fd565b604051808215151515815260200191505060405180910390f35b34801561018457600080fd5b506101b9600480360381019080803573ffffffffffffffffffffffffffffffffffffffff1690602001909291905050506106b4565b604051808215151515815260200191505060405180910390f35b3480156101df57600080fd5b50610214600480360381019080803573ffffffffffffffffffffffffffffffffffffffff169060200190929190505050610719565b604051808215151515815260200191505060405180910390f35b34801561023a57600080fd5b5061026f600480360381019080803573ffffffffffffffffffffffffffffffffffffffff16906020019092919050505061082d565b604051808215151515815260200191505060405180910390f35b34801561029557600080fd5b506102ca600480360381019080803573ffffffffffffffffffffffffffffffffffffffff169060200190929190505050610892565b604051808215151515815260200191505060405180910390f35b3480156102f057600080fd5b50610325600480360381019080803573ffffffffffffffffffffffffffffffffffffffff1690602001909291905050506108f7565b604051808215151515815260200191505060405180910390f35b34801561034b57600080fd5b50610380600480360381019080803573ffffffffffffffffffffffffffffffffffffffff169060200190929190505050610a0b565b604051808215151515815260200191505060405180910390f35b3480156103a657600080fd5b506103db600480360381019080803573ffffffffffffffffffffffffffffffffffffffff169060200190929190505050610b1f565b604051808615151515815260200185151515158152602001841515151581526020018315151515815260200182600019166000191681526020019550505050505060405180910390f35b34801561043157600080fd5b50610466600480360381019080803573ffffffffffffffffffffffffffffffffffffffff169060200190929190505050610b89565b604051808215151515815260200191505060405180910390f35b34801561048c57600080fd5b506104cf600480360381019080803573ffffffffffffffffffffffffffffffffffffffff1690602001909291908035600019169060200190929190505050610bee565b604051808215151515815260200191505060405180910390f35b6000600115156000803373ffffffffffffffffffffffffffffffffffffffff1673ffffffffffffffffffffffffffffffffffffffff16815260200190815260200160002060000160009054906101000a900460ff16151514151561054c57600080fd5b6000808373ffffffffffffffffffffffffffffffffffffffff1673ffffffffffffffffffffffffffffffffffffffff16815260200190815260200160002060000160019054906101000a900460ff16156000808473ffffffffffffffffffffffffffffffffffffffff1673ffffffffffffffffffffffffffffffffffffffff16815260200190815260200160002060000160016101000a81548160ff02191690831515021790555060019050919050565b6000600115156000803373ffffffffffffffffffffffffffffffffffffffff1673ffffffffffffffffffffffffffffffffffffffff16815260200190815260200160002060000160009054906101000a900460ff16151514151561066057600080fd5b816000808573ffffffffffffffffffffffffffffffffffffffff1673ffffffffffffffffffffffffffffffffffffffff16815260200190815260200160002060010181600019169055506001905092915050565b60008060008373ffffffffffffffffffffffffffffffffffffffff1673ffffffffffffffffffffffffffffffffffffffff16815260200190815260200160002060000160009054906101000a900460ff16151561071057600080fd5b60019050919050565b6000600115156000803373ffffffffffffffffffffffffffffffffffffffff1673ffffffffffffffffffffffffffffffffffffffff16815260200190815260200160002060000160009054906101000a900460ff16151514151561077c57600080fd5b6000808373ffffffffffffffffffffffffffffffffffffffff1673ffffffffffffffffffffffffffffffffffffffff16815260200190815260200160002060000160039054906101000a900460ff16156000808473ffffffffffffffffffffffffffffffffffffffff1673ffffffffffffffffffffffffffffffffffffffff16815260200190815260200160002060000160036101000a81548160ff02191690831515021790555060019050919050565b60008060008373ffffffffffffffffffffffffffffffffffffffff1673ffffffffffffffffffffffffffffffffffffffff16815260200190815260200160002060000160039054906101000a900460ff16151561088957600080fd5b60019050919050565b60008060008373ffffffffffffffffffffffffffffffffffffffff1673ffffffffffffffffffffffffffffffffffffffff16815260200190815260200160002060000160029054906101000a900460ff1615156108ee57600080fd5b60019050919050565b6000600115156000803373ffffffffffffffffffffffffffffffffffffffff1673ffffffffffffffffffffffffffffffffffffffff16815260200190815260200160002060000160009054906101000a900460ff16151514151561095a57600080fd5b6000808373ffffffffffffffffffffffffffffffffffffffff1673ffffffffffffffffffffffffffffffffffffffff16815260200190815260200160002060000160029054906101000a900460ff16156000808473ffffffffffffffffffffffffffffffffffffffff1673ffffffffffffffffffffffffffffffffffffffff16815260200190815260200160002060000160026101000a81548160ff02191690831515021790555060019050919050565b6000600115156000803373ffffffffffffffffffffffffffffffffffffffff1673ffffffffffffffffffffffffffffffffffffffff16815260200190815260200160002060000160009054906101000a900460ff161515141515610a6e57600080fd5b6000808373ffffffffffffffffffffffffffffffffffffffff1673ffffffffffffffffffffffffffffffffffffffff16815260200190815260200160002060000160009054906101000a900460ff16156000808473ffffffffffffffffffffffffffffffffffffffff1673ffffffffffffffffffffffffffffffffffffffff16815260200190815260200160002060000160006101000a81548160ff02191690831515021790555060019050919050565b60006020528060005260406000206000915090508060000160009054906101000a900460ff16908060000160019054906101000a900460ff16908060000160029054906101000a900460ff16908060000160039054906101000a900460ff16908060010154905085565b60008060008373ffffffffffffffffffffffffffffffffffffffff1673ffffffffffffffffffffffffffffffffffffffff16815260200190815260200160002060000160019054906101000a900460ff161515610be557600080fd5b60019050919050565b600081600019166000808573ffffffffffffffffffffffffffffffffffffffff1673ffffffffffffffffffffffffffffffffffffffff1681526020019081526020016000206001015460001916141515610c4757600080fd5b60019050929150505600a165627a7a72305820db66ff992bbddaa7d7010a936489f337d4766200cc1e54ec5f614c178632afb00029",
  "source": "pragma solidity ^0.4.24;\r\n\r\n\r\n/**\r\n * @title Role Manager\r\n * @dev System wide role management on chain\r\n */\r\n\r\ncontract roleManager{\r\n\r\n    struct user{\r\n        bool    isAdmin;\r\n        bool    isOEM;\r\n        bool    isSoftware;\r\n        bool    isUser;\r\n        bytes32  org;\r\n    }\r\n\r\n    mapping(address => user) public users;\r\n\r\n    modifier onlyAdmin{\r\n        require(users[msg.sender].isAdmin == true);\r\n        _;\r\n    }\r\n\r\n    constructor()public {users[msg.sender].isAdmin = true;}\r\n\r\n/* change user roles */\r\n\r\n    function chUser(address _newUser) onlyAdmin public returns(bool success){\r\n        users[_newUser].isUser = !users[_newUser].isUser;\r\n        return true;\r\n    }\r\n\r\n    function chSoftware(address _newUser) onlyAdmin public returns(bool success){\r\n        users[_newUser].isSoftware = !users[_newUser].isSoftware;\r\n        return true;\r\n    }\r\n\r\n    function chOEM(address _newUser) onlyAdmin public returns(bool success){\r\n        users[_newUser].isOEM = !users[_newUser].isOEM;\r\n        return true;\r\n    }\r\n\r\n    function chAdmin(address _newUser) onlyAdmin public returns(bool success){\r\n        users[_newUser].isAdmin = !users[_newUser].isAdmin;\r\n        return true;\r\n    }\r\n\r\n    function chOrg(address _newUser, bytes32 _org) onlyAdmin public returns (bool success){\r\n        users[_newUser].org = _org;\r\n        return true;\r\n    }\r\n    /* role checks */\r\n\r\n    function isUser(address _user) public view returns(bool success){require(users[_user].isUser);return true;}\r\n    function isSoftware(address _user) public view returns(bool success){require(users[_user].isSoftware);return true;}\r\n    function isOEM(address _user) public view returns(bool){require(users[_user].isOEM);return true;}\r\n    function isAdmin(address _user) public view returns(bool){require(users[_user].isAdmin);return true;}\r\n    function isOrg(address _user, bytes32 _org) public view returns(bool){require(users[_user].org == _org); return true;}\r\n}\r\n",
  "sourcePath": "C:\\Users\\cody.burns\\Documents\\github\\DELM\\chaincode\\contracts\\rolemanager.sol",
  "compiler": {
    "name": "solc",
    "version": "0.4.24+commit.e67f0147.Emscripten.clang"
  },
  "schemaVersion": "2.0.0",
  "updatedAt": "2018-08-07T17:49:36.336Z"
}