{
  "contractName": "SWF",
  "abi": [
    {
      "constant": true,
      "inputs": [
        {
          "name": "",
          "type": "uint256"
        }
      ],
      "name": "softwares",
      "outputs": [
        {
          "name": "itemName",
          "type": "string"
        },
        {
          "name": "icon",
          "type": "string"
        },
        {
          "name": "partsNumber",
          "type": "bytes32"
        },
        {
          "name": "memo",
          "type": "string"
        }
      ],
      "payable": false,
      "stateMutability": "view",
      "type": "function"
    },
    {
      "constant": true,
      "inputs": [],
      "name": "owner",
      "outputs": [
        {
          "name": "",
          "type": "address"
        }
      ],
      "payable": false,
      "stateMutability": "view",
      "type": "function"
    },
    {
      "constant": true,
      "inputs": [
        {
          "name": "_data",
          "type": "string"
        }
      ],
      "name": "string2bytes",
      "outputs": [
        {
          "name": "rData",
          "type": "bytes32"
        }
      ],
      "payable": false,
      "stateMutability": "view",
      "type": "function"
    },
    {
      "constant": true,
      "inputs": [],
      "name": "swCount",
      "outputs": [
        {
          "name": "",
          "type": "uint256"
        }
      ],
      "payable": false,
      "stateMutability": "view",
      "type": "function"
    },
    {
      "constant": true,
      "inputs": [
        {
          "name": "_data",
          "type": "bytes32"
        }
      ],
      "name": "bytes2string",
      "outputs": [
        {
          "name": "rData",
          "type": "string"
        }
      ],
      "payable": false,
      "stateMutability": "view",
      "type": "function"
    },
    {
      "inputs": [
        {
          "name": "_owner",
          "type": "address"
        },
        {
          "name": "xManager",
          "type": "address"
        },
        {
          "name": "xRegistryID",
          "type": "address"
        }
      ],
      "payable": false,
      "stateMutability": "nonpayable",
      "type": "constructor"
    },
    {
      "anonymous": false,
      "inputs": [
        {
          "indexed": false,
          "name": "_type",
          "type": "uint8"
        },
        {
          "indexed": false,
          "name": "_memo",
          "type": "string"
        },
        {
          "indexed": false,
          "name": "_deviceID",
          "type": "bytes32"
        },
        {
          "indexed": false,
          "name": "_device",
          "type": "address"
        }
      ],
      "name": "Logger",
      "type": "event"
    },
    {
      "constant": false,
      "inputs": [
        {
          "name": "_itemName",
          "type": "string"
        },
        {
          "name": "_icon",
          "type": "string"
        },
        {
          "name": "_partsNumber",
          "type": "bytes32"
        },
        {
          "name": "memo",
          "type": "string"
        }
      ],
      "name": "addSoftware",
      "outputs": [
        {
          "name": "success",
          "type": "bool"
        }
      ],
      "payable": false,
      "stateMutability": "nonpayable",
      "type": "function"
    }
  ],
  "bytecode": "0x60806040526000600102600290600019169055600060065534801561002357600080fd5b50604051606080612ad38339810180604052810190808051906020019092919080519060200190929190805190602001909291905050508181816000806101000a81548173ffffffffffffffffffffffffffffffffffffffff021916908373ffffffffffffffffffffffffffffffffffffffff16021790555080600160006101000a81548173ffffffffffffffffffffffffffffffffffffffff021916908373ffffffffffffffffffffffffffffffffffffffff160217905550505082600560006101000a81548173ffffffffffffffffffffffffffffffffffffffff021916908373ffffffffffffffffffffffffffffffffffffffff16021790555080600160006101000a81548173ffffffffffffffffffffffffffffffffffffffff021916908373ffffffffffffffffffffffffffffffffffffffff160217905550816000806101000a81548173ffffffffffffffffffffffffffffffffffffffff021916908373ffffffffffffffffffffffffffffffffffffffff160217905550505050612920806101b36000396000f3006080604052600436106200007f576000357c0100000000000000000000000000000000000000000000000000000000900463ffffffff1680632596d00414620000845780638da5cb5b146200021d5780639e8e65721462000277578063ad54f8621462000395578063d5979038146200041d578063f37013c9146200044b575b600080fd5b3480156200009157600080fd5b50620000b260048036038101908080359060200190929190505050620004fb565b604051808060200180602001856000191660001916815260200180602001848103845288818151815260200191508051906020019080838360005b838110156200010a578082015181840152602081019050620000ed565b50505050905090810190601f168015620001385780820380516001836020036101000a031916815260200191505b50848103835287818151815260200191508051906020019080838360005b838110156200017357808201518184015260208101905062000156565b50505050905090810190601f168015620001a15780820380516001836020036101000a031916815260200191505b50848103825285818151815260200191508051906020019080838360005b83811015620001dc578082015181840152602081019050620001bf565b50505050905090810190601f1680156200020a5780820380516001836020036101000a031916815260200191505b5097505050505050505060405180910390f35b3480156200022a57600080fd5b5062000235620006ff565b604051808273ffffffffffffffffffffffffffffffffffffffff1673ffffffffffffffffffffffffffffffffffffffff16815260200191505060405180910390f35b3480156200028457600080fd5b506200037b600480360381019080803590602001908201803590602001908080601f0160208091040260200160405190810160405280939291908181526020018383808284378201915050505050509192919290803590602001908201803590602001908080601f01602080910402602001604051908101604052809392919081815260200183838082843782019150505050505091929192908035600019169060200190929190803590602001908201803590602001908080601f016020809104026020016040519081016040528093929190818152602001838380828437820191505050505050919291929050505062000725565b604051808215151515815260200191505060405180910390f35b348015620003a257600080fd5b50620003ff600480360381019080803590602001908201803590602001908080601f016020809104026020016040519081016040528093929190818152602001838380828437820191505050505050919291929050505062000af2565b60405180826000191660001916815260200191505060405180910390f35b3480156200042a57600080fd5b506200043562000b69565b6040518082815260200191505060405180910390f35b3480156200045857600080fd5b506200047d600480360381019080803560001916906020019092919050505062000b6f565b6040518080602001828103825283818151815260200191508051906020019080838360005b83811015620004bf578082015181840152602081019050620004a2565b50505050905090810190601f168015620004ed5780820380516001836020036101000a031916815260200191505b509250505060405180910390f35b6007602052806000526040600020600091509050806000018054600181600116156101000203166002900480601f016020809104026020016040519081016040528092919081815260200182805460018160011615610100020316600290048015620005ab5780601f106200057f57610100808354040283529160200191620005ab565b820191906000526020600020905b8154815290600101906020018083116200058d57829003601f168201915b505050505090806001018054600181600116156101000203166002900480601f0160208091040260200160405190810160405280929190818152602001828054600181600116156101000203166002900480156200064d5780601f1062000621576101008083540402835291602001916200064d565b820191906000526020600020905b8154815290600101906020018083116200062f57829003601f168201915b505050505090806002015490806003018054600181600116156101000203166002900480601f016020809104026020016040519081016040528092919081815260200182805460018160011615610100020316600290048015620006f55780601f10620006c957610100808354040283529160200191620006f5565b820191906000526020600020905b815481529060010190602001808311620006d757829003601f168201915b5050505050905084565b600560009054906101000a900473ffffffffffffffffffffffffffffffffffffffff1681565b6000806000600160009054906101000a900473ffffffffffffffffffffffffffffffffffffffff1673ffffffffffffffffffffffffffffffffffffffff1663a3062b93866040518263ffffffff167c0100000000000000000000000000000000000000000000000000000000028152600401808260001916600019168152602001915050602060405180830381600087803b158015620007c457600080fd5b505af1158015620007d9573d6000803e3d6000fd5b505050506040513d6020811015620007f057600080fd5b810190808051906020019092919050505015156200080d57600080fd5b868686866200081b62000c30565b808060200180602001856000191660001916815260200180602001848103845288818151815260200191508051906020019080838360005b838110156200087057808201518184015260208101905062000853565b50505050905090810190601f1680156200089e5780820380516001836020036101000a031916815260200191505b50848103835287818151815260200191508051906020019080838360005b83811015620008d9578082015181840152602081019050620008bc565b50505050905090810190601f168015620009075780820380516001836020036101000a031916815260200191505b50848103825285818151815260200191508051906020019080838360005b838110156200094257808201518184015260208101905062000925565b50505050905090810190601f168015620009705780820380516001836020036101000a031916815260200191505b50975050505050505050604051809103906000f08015801562000997573d6000803e3d6000fd5b509150600760006006548152602001908152602001600020905086816000019080519060200190620009cb92919062000c41565b5085816001019080519060200190620009e692919062000c41565b50848160020181600019169055508381600301908051906020019062000a0e92919062000c41565b507f426175ad8874b4bc4c13145c1188da49739d4a866decb2f6e1971a9807281962600080846040518084600181111562000a4557fe5b60ff16815260200180602001846001026000191681526020018373ffffffffffffffffffffffffffffffffffffffff1673ffffffffffffffffffffffffffffffffffffffff1681526020018281038252600e8152602001807f536f66747761726520416464656400000000000000000000000000000000000081525060200194505050505060405180910390a1600660008154809291906001019190505550600192505050949350505050565b60006004826040518082805190602001908083835b60208310151562000b2e578051825260208201915060208101905060208303925062000b07565b6001836020036101000a0380198251168184511680821785525050505050509050019150509081526020016040518091039020549050919050565b60065481565b60606003600083600019166000191681526020019081526020016000208054600181600116156101000203166002900480601f01602080910402602001604051908101604052809291908181526020018280546001816001161561010002031660029004801562000c245780601f1062000bf85761010080835404028352916020019162000c24565b820191906000526020600020905b81548152906001019060200180831162000c0657829003601f168201915b50505050509050919050565b604051611c048062000cf183390190565b828054600181600116156101000203166002900490600052602060002090601f016020900481019282601f1062000c8457805160ff191683800117855562000cb5565b8280016001018555821562000cb5579182015b8281111562000cb457825182559160200191906001019062000c97565b5b50905062000cc4919062000cc8565b5090565b62000ced91905b8082111562000ce957600081600090555060010162000ccf565b5090565b90560060806040523480156200001157600080fd5b5060405162001c0438038062001c0483398101806040528101908080518201929190602001805182019291906020018051906020019092919080518201929190505050620000916301ffc9a77c0100000000000000000000000000000000000000000000000000000000026200016b640100000000026401000000009004565b620000ce6380ac58cd7c0100000000000000000000000000000000000000000000000000000000026200016b640100000000026401000000009004565b6200010b634f558e797c0100000000000000000000000000000000000000000000000000000000026200016b640100000000026401000000009004565b83600590805190602001906200012392919062000229565b5082600690805190602001906200013c92919062000229565b50816007816000191690555080600890805190602001906200016092919062000229565b5050505050620002d8565b63ffffffff7c010000000000000000000000000000000000000000000000000000000002817bffffffffffffffffffffffffffffffffffffffffffffffffffffffff191614151515620001bd57600080fd5b6001600080837bffffffffffffffffffffffffffffffffffffffffffffffffffffffff19167bffffffffffffffffffffffffffffffffffffffffffffffffffffffff1916815260200190815260200160002060006101000a81548160ff02191690831515021790555050565b828054600181600116156101000203166002900490600052602060002090601f016020900481019282601f106200026c57805160ff19168380011785556200029d565b828001600101855582156200029d579182015b828111156200029c5782518255916020019190600101906200027f565b5b509050620002ac9190620002b0565b5090565b620002d591905b80821115620002d1576000816000905550600101620002b7565b5090565b90565b61191c80620002e86000396000f3006080604052600436106100f1576000357c0100000000000000000000000000000000000000000000000000000000900463ffffffff16806301ffc9a7146100f657806311779a0a1461015a57806319fa8f50146102115780632724e4581461027a57806338a699a4146102ad57806340401fea146102f657806340a051911461038657806358c3b870146103f75780635cd2f4d31461048757806370a08231146104d85780637dd564111461052f578063a22cb465146105a0578063b3c06f50146105ef578063c516927514610660578063c557b985146106b1578063e985e9c514610741578063ef270ee2146107bc575b600080fd5b34801561010257600080fd5b5061014060048036038101908080357bffffffffffffffffffffffffffffffffffffffffffffffffffffffff1916906020019092919050505061082d565b604051808215151515815260200191505060405180910390f35b34801561016657600080fd5b5061020f600480360381019080803573ffffffffffffffffffffffffffffffffffffffff169060200190929190803573ffffffffffffffffffffffffffffffffffffffff1690602001909291908035600019169060200190929190803590602001908201803590602001908080601f0160208091040260200160405190810160405280939291908181526020018383808284378201915050505050509192919290505050610894565b005b34801561021d57600080fd5b506102266108bc565b60405180827bffffffffffffffffffffffffffffffffffffffffffffffffffffffff19167bffffffffffffffffffffffffffffffffffffffffffffffffffffffff1916815260200191505060405180910390f35b34801561028657600080fd5b5061028f6108e3565b60405180826000191660001916815260200191505060405180910390f35b3480156102b957600080fd5b506102dc60048036038101908080356000191690602001909291905050506108e9565b604051808215151515815260200191505060405180910390f35b34801561030257600080fd5b5061030b610963565b6040518080602001828103825283818151815260200191508051906020019080838360005b8381101561034b578082015181840152602081019050610330565b50505050905090810190601f1680156103785780820380516001836020036101000a031916815260200191505b509250505060405180910390f35b34801561039257600080fd5b506103f5600480360381019080803573ffffffffffffffffffffffffffffffffffffffff169060200190929190803573ffffffffffffffffffffffffffffffffffffffff1690602001909291908035600019169060200190929190505050610a01565b005b34801561040357600080fd5b5061040c610a22565b6040518080602001828103825283818151815260200191508051906020019080838360005b8381101561044c578082015181840152602081019050610431565b50505050905090810190601f1680156104795780820380516001836020036101000a031916815260200191505b509250505060405180910390f35b34801561049357600080fd5b506104d6600480360381019080803573ffffffffffffffffffffffffffffffffffffffff1690602001909291908035600019169060200190929190505050610ac0565b005b3480156104e457600080fd5b50610519600480360381019080803573ffffffffffffffffffffffffffffffffffffffff169060200190929190505050610c11565b6040518082815260200191505060405180910390f35b34801561053b57600080fd5b5061055e6004803603810190808035600019169060200190929190505050610c95565b604051808273ffffffffffffffffffffffffffffffffffffffff1673ffffffffffffffffffffffffffffffffffffffff16815260200191505060405180910390f35b3480156105ac57600080fd5b506105ed600480360381019080803573ffffffffffffffffffffffffffffffffffffffff169060200190929190803515159060200190929190505050610d1b565b005b3480156105fb57600080fd5b5061065e600480360381019080803573ffffffffffffffffffffffffffffffffffffffff169060200190929190803573ffffffffffffffffffffffffffffffffffffffff1690602001909291908035600019169060200190929190505050610e57565b005b34801561066c57600080fd5b506106af600480360381019080803573ffffffffffffffffffffffffffffffffffffffff1690602001909291908035600019169060200190929190505050610f66565b005b3480156106bd57600080fd5b506106c6611113565b6040518080602001828103825283818151815260200191508051906020019080838360005b838110156107065780820151818401526020810190506106eb565b50505050905090810190601f1680156107335780820380516001836020036101000a031916815260200191505b509250505060405180910390f35b34801561074d57600080fd5b506107a2600480360381019080803573ffffffffffffffffffffffffffffffffffffffff169060200190929190803573ffffffffffffffffffffffffffffffffffffffff1690602001909291905050506111b1565b604051808215151515815260200191505060405180910390f35b3480156107c857600080fd5b506107eb6004803603810190808035600019169060200190929190505050611245565b604051808273ffffffffffffffffffffffffffffffffffffffff1673ffffffffffffffffffffffffffffffffffffffff16815260200191505060405180910390f35b6000806000837bffffffffffffffffffffffffffffffffffffffffffffffffffffffff19167bffffffffffffffffffffffffffffffffffffffffffffffffffffffff1916815260200190815260200160002060009054906101000a900460ff169050919050565b61089f848484610e57565b6108ab8484848461128a565b15156108b657600080fd5b50505050565b6301ffc9a77c01000000000000000000000000000000000000000000000000000000000281565b60075481565b60008060016000846000191660001916815260200190815260200160002060009054906101000a900473ffffffffffffffffffffffffffffffffffffffff169050600073ffffffffffffffffffffffffffffffffffffffff168173ffffffffffffffffffffffffffffffffffffffff161415915050919050565b60058054600181600116156101000203166002900480601f0160208091040260200160405190810160405280929190818152602001828054600181600116156101000203166002900480156109f95780601f106109ce576101008083540402835291602001916109f9565b820191906000526020600020905b8154815290600101906020018083116109dc57829003601f168201915b505050505081565b610a1d8383836020604051908101604052806000815250610894565b505050565b60088054600181600116156101000203166002900480601f016020809104026020016040519081016040528092919081815260200182805460018160011615610100020316600290048015610ab85780601f10610a8d57610100808354040283529160200191610ab8565b820191906000526020600020905b815481529060010190602001808311610a9b57829003601f168201915b505050505081565b6000610acb82610c95565b90508073ffffffffffffffffffffffffffffffffffffffff168373ffffffffffffffffffffffffffffffffffffffff1614151515610b0857600080fd5b8073ffffffffffffffffffffffffffffffffffffffff163373ffffffffffffffffffffffffffffffffffffffff161480610b485750610b4781336111b1565b5b1515610b5357600080fd5b8260026000846000191660001916815260200190815260200160002060006101000a81548173ffffffffffffffffffffffffffffffffffffffff021916908373ffffffffffffffffffffffffffffffffffffffff16021790555081600019168373ffffffffffffffffffffffffffffffffffffffff168273ffffffffffffffffffffffffffffffffffffffff167f36a9e0c1da9cdc6d8f4bd4cb261f9ad6a45eb1641a557ead7530fbeff9a2633660405160405180910390a4505050565b60008073ffffffffffffffffffffffffffffffffffffffff168273ffffffffffffffffffffffffffffffffffffffff1614151515610c4e57600080fd5b600360008373ffffffffffffffffffffffffffffffffffffffff1673ffffffffffffffffffffffffffffffffffffffff168152602001908152602001600020549050919050565b60008060016000846000191660001916815260200190815260200160002060009054906101000a900473ffffffffffffffffffffffffffffffffffffffff169050600073ffffffffffffffffffffffffffffffffffffffff168173ffffffffffffffffffffffffffffffffffffffff1614151515610d1257600080fd5b80915050919050565b3373ffffffffffffffffffffffffffffffffffffffff168273ffffffffffffffffffffffffffffffffffffffff1614151515610d5657600080fd5b80600460003373ffffffffffffffffffffffffffffffffffffffff1673ffffffffffffffffffffffffffffffffffffffff16815260200190815260200160002060008473ffffffffffffffffffffffffffffffffffffffff1673ffffffffffffffffffffffffffffffffffffffff16815260200190815260200160002060006101000a81548160ff0219169083151502179055508173ffffffffffffffffffffffffffffffffffffffff163373ffffffffffffffffffffffffffffffffffffffff167f17307eab39ab6107e8899845ad3d59bd9653f200f220920489ca2b5937696c3183604051808215151515815260200191505060405180910390a35050565b610e6133826114b4565b1515610e6c57600080fd5b600073ffffffffffffffffffffffffffffffffffffffff168373ffffffffffffffffffffffffffffffffffffffff1614151515610ea857600080fd5b600073ffffffffffffffffffffffffffffffffffffffff168273ffffffffffffffffffffffffffffffffffffffff1614151515610ee457600080fd5b610eee8382611549565b610ef8838261165c565b610f028282611783565b80600019168273ffffffffffffffffffffffffffffffffffffffff168473ffffffffffffffffffffffffffffffffffffffff167f8d61cf26ce654b1352bb60df9f3d4056b9e85a63977debf8fc9cd727aeda767e60405160405180910390a4505050565b600073ffffffffffffffffffffffffffffffffffffffff168273ffffffffffffffffffffffffffffffffffffffff1614151515610fa257600080fd5b610fac8282611783565b8173ffffffffffffffffffffffffffffffffffffffff1663309609806001836040518363ffffffff167c01000000000000000000000000000000000000000000000000000000000281526004018083600581111561100657fe5b60ff1681526020018060200183600019166000191681526020018281038252600a8152602001807f546f6b656e4164646564000000000000000000000000000000000000000000008152506020019350505050602060405180830381600087803b15801561107357600080fd5b505af1158015611087573d6000803e3d6000fd5b505050506040513d602081101561109d57600080fd5b81019080805190602001909291905050505080600019168273ffffffffffffffffffffffffffffffffffffffff16600073ffffffffffffffffffffffffffffffffffffffff167f8d61cf26ce654b1352bb60df9f3d4056b9e85a63977debf8fc9cd727aeda767e60405160405180910390a45050565b60068054600181600116156101000203166002900480601f0160208091040260200160405190810160405280929190818152602001828054600181600116156101000203166002900480156111a95780601f1061117e576101008083540402835291602001916111a9565b820191906000526020600020905b81548152906001019060200180831161118c57829003601f168201915b505050505081565b6000600460008473ffffffffffffffffffffffffffffffffffffffff1673ffffffffffffffffffffffffffffffffffffffff16815260200190815260200160002060008373ffffffffffffffffffffffffffffffffffffffff1673ffffffffffffffffffffffffffffffffffffffff16815260200190815260200160002060009054906101000a900460ff16905092915050565b600060026000836000191660001916815260200190815260200160002060009054906101000a900473ffffffffffffffffffffffffffffffffffffffff169050919050565b6000806112ac8573ffffffffffffffffffffffffffffffffffffffff166118dd565b15156112bb57600191506114ab565b8473ffffffffffffffffffffffffffffffffffffffff16638b3cc69f338887876040518563ffffffff167c0100000000000000000000000000000000000000000000000000000000028152600401808573ffffffffffffffffffffffffffffffffffffffff1673ffffffffffffffffffffffffffffffffffffffff1681526020018473ffffffffffffffffffffffffffffffffffffffff1673ffffffffffffffffffffffffffffffffffffffff168152602001836000191660001916815260200180602001828103825283818151815260200191508051906020019080838360005b838110156113b857808201518184015260208101905061139d565b50505050905090810190601f1680156113e55780820380516001836020036101000a031916815260200191505b5095505050505050602060405180830381600087803b15801561140757600080fd5b505af115801561141b573d6000803e3d6000fd5b505050506040513d602081101561143157600080fd5b8101908080519060200190929190505050905063150b7a027c0100000000000000000000000000000000000000000000000000000000027bffffffffffffffffffffffffffffffffffffffffffffffffffffffff1916817bffffffffffffffffffffffffffffffffffffffffffffffffffffffff19161491505b50949350505050565b6000806114c083610c95565b90508073ffffffffffffffffffffffffffffffffffffffff168473ffffffffffffffffffffffffffffffffffffffff16148061152f57508373ffffffffffffffffffffffffffffffffffffffff1661151784611245565b73ffffffffffffffffffffffffffffffffffffffff16145b80611540575061153f81856111b1565b5b91505092915050565b8173ffffffffffffffffffffffffffffffffffffffff1661156982610c95565b73ffffffffffffffffffffffffffffffffffffffff1614151561158b57600080fd5b600073ffffffffffffffffffffffffffffffffffffffff1660026000836000191660001916815260200190815260200160002060009054906101000a900473ffffffffffffffffffffffffffffffffffffffff1673ffffffffffffffffffffffffffffffffffffffff1614151561165857600060026000836000191660001916815260200190815260200160002060006101000a81548173ffffffffffffffffffffffffffffffffffffffff021916908373ffffffffffffffffffffffffffffffffffffffff1602179055505b5050565b8173ffffffffffffffffffffffffffffffffffffffff1661167c82610c95565b73ffffffffffffffffffffffffffffffffffffffff1614151561169e57600080fd5b6001600360008473ffffffffffffffffffffffffffffffffffffffff1673ffffffffffffffffffffffffffffffffffffffff1681526020019081526020016000205403600360008473ffffffffffffffffffffffffffffffffffffffff1673ffffffffffffffffffffffffffffffffffffffff16815260200190815260200160002081905550600060016000836000191660001916815260200190815260200160002060006101000a81548173ffffffffffffffffffffffffffffffffffffffff021916908373ffffffffffffffffffffffffffffffffffffffff1602179055505050565b600073ffffffffffffffffffffffffffffffffffffffff1660016000836000191660001916815260200190815260200160002060009054906101000a900473ffffffffffffffffffffffffffffffffffffffff1673ffffffffffffffffffffffffffffffffffffffff161415156117f957600080fd5b8160016000836000191660001916815260200190815260200160002060006101000a81548173ffffffffffffffffffffffffffffffffffffffff021916908373ffffffffffffffffffffffffffffffffffffffff1602179055506001600360008473ffffffffffffffffffffffffffffffffffffffff1673ffffffffffffffffffffffffffffffffffffffff1681526020019081526020016000205401600360008473ffffffffffffffffffffffffffffffffffffffff1673ffffffffffffffffffffffffffffffffffffffff168152602001908152602001600020819055505050565b600080823b9050600081119150509190505600a165627a7a723058208c65002bb636438908e4eabfb31428c13635a35c4dd2ff44e0d87aae68bfaee00029a165627a7a72305820539191982cd859daab047dc3f726f44fb6c0b7a5176e499a324097bc936443e50029",
  "source": "pragma solidity ^0.4.24;\r\n\r\n/**\r\n * @title Software Factory\r\n * @dev Contract for deploying a software erc 721 on chain\r\n */\r\n\r\nimport \"../managed.sol\";\r\nimport \"../registry.sol\";\r\nimport \"../Tokens/ERC721DRMToken.sol\";\r\n\r\ncontract SWF is managed{\r\n\r\n  address public owner;\r\n\r\n    struct software{\r\n     /* metadata */\r\n     string itemName;\r\n     string icon;\r\n     bytes32 partsNumber;\r\n     string memo;\r\n     }\r\n\r\n    uint public swCount = 0 ;\r\n\r\n    mapping(uint => software) public softwares;\r\n\r\n\r\n    /*\r\nfunction formatter(bytes32 _deviceID, bytes32 _oemSerial, bytes32 _modelName, bytes32 _deviceType) private returns(bool) {\r\n    if (_deviceID == empty){emit Logger(logType.err , \"missing deviceID\", _deviceID, msg.sender); return false;}\r\n    if (_oemSerial == empty){emit Logger(logType.err , \"missing oem Serial\", _oemSerial, msg.sender); return false;}\r\n    if (_modelName == empty) {emit Logger(logType.err , \"missing model Name\", _modelName, msg.sender); return false;}\r\n    if (_deviceType == empty) {emit Logger(logType.err , \"missing device Type\", _deviceType, msg.sender); return false;}\r\n    return true;\r\n}\r\n*/\r\n\r\nconstructor(address _owner, address xManager,address xRegistryID) managed(xManager,xRegistryID) public {\r\n  owner = _owner;\r\n  registryID = xRegistryID;\r\n  manager = xManager;\r\n}\r\n\r\n function addSoftware(string _itemName, string _icon, bytes32 _partsNumber, string memo ) public returns(bool success){\r\n\r\n\r\n     require(registry(registryID).software(_partsNumber));\r\n\r\n    //create a device contract\r\n      ERC721DRMToken genSoftware = new ERC721DRMToken(_itemName, _icon, _partsNumber,  memo);\r\n\r\n    //store the data on new device\r\n      software storage s = softwares[swCount];\r\n      s.itemName = _itemName;\r\n      s.icon = _icon;\r\n      s.partsNumber = _partsNumber;\r\n      s.memo = memo;\r\n      emit Logger(logType.statusUpdate, \"Software Added\", 0x0 , genSoftware);\r\n      swCount++;\r\n      return true;\r\n    }\r\n}\r\n",
  "sourcePath": "C:\\Users\\cody.burns\\Documents\\github\\DELM\\chaincode\\contracts\\Factorys\\SWF.sol",
  "compiler": {
    "name": "solc",
    "version": "0.4.24+commit.e67f0147.Emscripten.clang"
  },
  "schemaVersion": "2.0.0",
  "updatedAt": "2018-08-07T17:49:36.315Z"
}